:020000040800F2
:10000000088200209D01000837120008930F0008A5
:1000100035120008A7070008F914000800000000C6
:10002000000000000000000000000000B9130008FC
:10003000A907000800000000391200088914000810
:10004000B7010008B7010008B7010008B7010008B0
:10005000B7010008B7010008B7010008B7010008A0
:10006000B7010008B7010008B7010008B701000890
:10007000B7010008B7010008B7010008B701000880
:10008000B7010008B7010008B7010008B701000870
:10009000B7010008B7010008B7010008DD0E00082D
:1000A000B7010008B7010008B7010008B701000850
:1000B000B7010008B7010008B7010008B701000840
:1000C000B7010008B7010008B7010008B701000830
:1000D000B7010008B7010008B7010008B701000820
:1000E000B7010008B7010008B7010008B701000810
:1000F000B7010008B7010008B7010008B701000800
:10010000B7010008B7010008B7010008B7010008EF
:10011000B7010008B7010008B7010008B7010008DF
:10012000B7010008B7010008B7010008B7010008CF
:10013000B7010008B7010008B7010008B7010008BF
:10014000B7010008B7010008B7010008B7010008AF
:10015000B7010008B7010008B7010008B70100089F
:10016000B7010008B7010008B7010008B70100088F
:10017000B7010008B7010008B7010008B70100087F
:10018000B7010008B7010008DFF80CD000F092F9C1
:100190000048004769370008088200200648804769
:1001A00006480047FEE7FEE7FEE7FEE7FEE7FEE75C
:1001B000FEE7FEE7FEE7FEE78D1400088901000870
:1001C00040EA01039B0703D009E008C9121F08C0D9
:1001D000042AFAD203E011F8013B00F8013B521E59
:1001E000F9D27047D2B201E000F8012B491EFBD2D0
:1001F00070470022F6E710B504460846114602464D
:100200002046FFF7EFFF204610BD30B50EE0034655
:100210000A4601E05B1C521C1C781578AC4201D1E7
:10022000002CF7D115F0FF0F04D0401C0278002AF3
:10023000EDD1002030BDCAB20178914203D009B19E
:10024000401CF9E7002070470146002000E0401CF8
:100250000A5C002AFBD1704710B5002200E0521C56
:10026000835C8C5CA34201D1002BF8D1D8B2E1B2FF
:10027000401A10BD30B504460020034600E05B1C68
:10028000934203D2E05CCD5C401BF8D030BD30B56A
:1002900005460020034600E05B1C934205D2EC5C5F
:1002A000C85C201A01D1002CF6D130BD2DE9FE4FDB
:1002B00081EA030421F0004504F0004423F00041EA
:1002C0004FF0000A009450EA050302D052EA0103FD
:1002D00004D10020014603B0BDE8F08FC1F30A53FA
:1002E000C5F30A541C44A0FB02B3C5F3130545F43F
:1002F000801CC1F3130141F480180CFB023300FB96
:10030000083EA4F2F334810A930A41EA8C5143EA8D
:1003100088530194A1FB03474FEA9C2505FB037317
:100320004FEA982601FB06373D05260545EA1435B8
:10033000BBEB06016EEB0503850E920E45EA8C15AC
:1003400042EA8812A5FB0206261E67EB00070C0D89
:1003500044EA0334A41947EB1350C1F313064FF0DA
:10036000000319464FEA033343EA165343EA0403F2
:10037000019CE5FB0201A4F10C040294009C4FEAED
:100380000632CDE900A400F042F8A4E70EB540F231
:10039000334102910021CDE900110A460B4600F0DD
:1003A00036F803B000BDC1F30A52C1F3130140F2A5
:1003B000FF3341F480119A4201DA0020704740F285
:1003C00033439A42A2F2334202DC524200F002B8B6
:1003D00090407047202A04DB203A21FA02F00021E5
:1003E000704721FA02F3D040C2F120029140084345
:1003F0001946704710B5002B08DA401C41F1000186
:1004000092185B411A4301D120F0010010BD2DE983
:10041000F04D92469B4611B1B1FA81F202E0B0FA7A
:1004200080F22032904600F057F806460F4640EA28
:100430000A0041EA0B0152465B46084303D13046AD
:100440003946BDE8F08D194652EA010015D0C8F1D1
:1004500040025046FFF7BEFF04460D46504659463F
:10046000424600F039F8084301D0012000E00020A6
:10047000044345EAE07526432F430A984FEAD62500
:10048000A0EB08000A304FEA46534FF0000245EA5D
:1004900047554FEAD72402D500200146D1E7010590
:1004A00050196141DDE9084500196941BDE8F04D89
:1004B000A0E70000064C074D06E0E06840F00103AD
:1004C00094E8070098471034AC42F6D3FFF760FE7B
:1004D000E4EC000804ED0008202A04DB203A00FACE
:1004E00002F1002070479140C2F1200320FA03F38B
:1004F00019439040704770B501EB020410F8015B9E
:1005000015F0070301D110F8013B2A1106D110F8AC
:10051000012B03E010F8016B01F8016B5B1EF9D1B0
:100520002B0705D40023521E0FD401F8013BFAE734
:1005300010F8013B02F10202A1EB030303E013F800
:10054000015B01F8015B521EF9D5A142D6D3002010
:1005500070BD21B1816841F00101816070478168FF
:1005600021F001018160704710B5094C22680949EA
:1005700002EA0102D0E9001341EA0301D0E90230A6
:1005800043EA000341EA030141EA0201216010BD90
:1005900004230140E030FCFF10B58CB0012188023B
:1005A00000F064FE4FF40070009003208DF804000A
:1005B00000248DF807406946164800F099FC029423
:1005C0004FF4003003900494059402A8FFF7CCFF89
:1005D00006A800F0DEF806948DF81C4001208DF886
:1005E0001D0008940A948DF82C000B4C06A9204697
:1005F00000F066F8032301220721204600F086F868
:1006000001212046FFF7A5FF204600F0BDF80CB001
:1006100010BD00000014024000220140C06C80B2F6
:100620007047000070B50C4608B1002070BD204D29
:100630002868012803D1FFF7AFFF002028601D487C
:10064000FFF7ECFFFFF7A2FE9FED1B1B53EC112BF6
:10065000FFF72CFEFFF7A7FE4FF47A71B0FBF1F124
:10066000C9B26FF07C0211FB02F200EBC2026423FC
:10067000B2FBF3F2D2B24FF47A7311FB03F302EB45
:10068000C20505EB021503EB8505431B0A26B3FBE8
:10069000F6F303EB830605EB4605401B3031217072
:1006A000303262703033A3703030E070042070BD9F
:1006B00018000020002201409A9999999999E93FE0
:1006C00030B542680F4B1A400C790B6842EA04229D
:1006D0001343436083680C4A1340D1E90342224329
:1006E0004D798C6844EA450422431A438260C26A09
:1006F00022F47002097D491EC9B242EA0151C16269
:1007000030BD0000FFFEFFFCFDF7FFC070B50726FF
:1007100009290ED9D0F80CC0A1F10A0404EB440455
:10072000A6402CEA060CA3404CEA030CC0F80CC00F
:1007300007E0056901EB4104A640B543A3401D4312
:1007400005611F23072A09D2446B521E02EB820265
:1007500093409C4391400C43446370BD0D2A09D2E1
:10076000046BD21F02EB820293409C4391400C43E6
:10077000046370BDC46A0D3A02EB820293409C434D
:1007800091400C43C46270BD816841F0804181603A
:10079000704700210160017141718160C160016198
:1007A000012101757047FEE7704700001FB500F09A
:1007B00011F900F081FA1B484068D0B1042000F024
:1007C00055FE684600F05EFD01986421B0FBF1F033
:1007D000B0F1807F0CD220F07F414FF0E020491E25
:1007E0004161114AF02111700021816107210161ED
:1007F0001FBD4FF4784000F05FFC00F03BFCC08868
:100800000AA100EB800080B200F0D4FB00F032FCC3
:10081000C0880BA100EB40004004000C00F0CAFBB4
:10082000FEE700001000002023ED00E0202020451E
:10083000746865726E657420496E697420202000AA
:100840002020202020206661696C65642020202003
:1008500020200000184A506803681146002B896860
:1008600008DB0368DB0505D548608868401C8860A4
:10087000012070470368002B0EDB03689B050BD536
:100880000368DB0508D40860002048600120886008
:100890005068C06850600DE00368002B0ADB0368F5
:1008A0009B0507D40368DB0504D48B685B1C8B6055
:1008B000C06850600020704708010020054920B141
:1008C000886940F0020088617047886920F0020062
:1008D00088617047009002402DE9F0410023124EDC
:1008E00070604FF0004744F2F458A2F1010C13E09D
:1008F00000EB43142760C4F80480C3EBC31505EB79
:10090000450501EB8505A560634503D204F120058B
:10091000E56000E0E0605B1C9342E9D30349C860F6
:100920000348B060BDE8F08108010020009002405B
:10093000F87D0020054920B1886940F400508861A5
:100940007047886920F40050886170470090024029
:1009500070B500230E4C20604FF48016A2F1010CFC
:1009600011E000EB43142660C3EBC31505EB45050E
:1009700001EB8505A560634503D204F12005E56020
:1009800000E0E0605B1C9342EBD30249086170BD5C
:10099000080100200090024002680A43026070478C
:1009A00010B501214C06204600F054FC2046BDE85D
:1009B0001040002100F04EBC00E0401E0028FCD199
:1009C000704700000248816941F4801181617047DD
:1009D000009002407CB50121880300F047FC012112
:1009E000052000F02BFC012000F0E8FC03208DF82E
:1009F000050002248DF8044000208DF806008DF8D3
:100A00000700294E0B220221304600F0AEFA274D96
:100A10000B220121284600F0A8FA04210091694622
:100A2000304600F065FA00946946284600F060FA06
:100A30000B220121304600F098FA0B2207213046A4
:100A400000F093FA822100916946304600F050FA96
:100A50000B220421284600F088FA0B2205212846A3
:100A600000F083FA302100916946284600F040FAF0
:100A70000121402000F0E2FB0D4C0B2211462046E4
:100A800000F073FA0B220D21204600F06EFA0B22C3
:100A90000E21204600F069FA4FF4D04100916946DA
:100AA000204600F025FA7CBD00000240000802400C
:100AB00000180240002003490968C90700D001203E
:100AC00070470000009002401EB500210191029184
:100AD0000B4B59680A68C2F30D42121F00929A68C4
:100AE0009468012C03D912689268019201E08A6827
:100AF00001920291C96859609DE80E000EC01EBDAA
:100B0000080100207FB50446534E306920F01C05D3
:100B1000684600F0B7FB01985049514A01449142A0
:100B200002D245F0080516E04E494F4A0144914271
:100B300002D245F00C050EE04C494D4A0144914269
:100B400009D34C4908444C49884202D245F0040577
:100B500001E045F0100535614848FFF72DFF316889
:100B600047480140D4E901021043D4E903231A4362
:100B7000104362691043A2691043E2691043226A7C
:100B80001043626A1043A26A1043E26A1043226B68
:100B90001043626B104308433060D4E90E010843F0
:100BA000D4E9101211430843A16C0843E16C0843D7
:100BB000216D0843616D08437060A06DB060E06D09
:100BC000F060B1694FF641700140D4E91902104359
:100BD000236EE26E42EA03421043226F1043626FBB
:100BE00010430843B061D4E91E010843F061254871
:100BF000826925490A40D4E920131943D4E92235F2
:100C00002B431943D4F890301943D4F89430194346
:100C1000D4F898301943D4F89C301943D4F8A03054
:100C2000194311438161D4E929121143D4E92B23DB
:100C30001A431143D4F8B42041EA8201D4F8B82011
:100C4000114341F400010160016841F0800101603D
:100C500004B0012070BD00000080024000D3CEFE31
:100C6000C0E1E40040F1E9FD40787D0100796CFCD1
:100C7000005A6202001F0AFA80F0FA02FFFF0F001A
:100C80000F8120FF00900240233FDEF80A794B7964
:100C900042EA0322074B184402640A78CB7842EAFE
:100CA00003628B7849781B0443EA01210A434264BA
:100CB000704700000080024000B5AFB001214FF046
:100CC000606000F0BBFAFFF76BFE00F0A1F8FFF7E1
:100CD000F1FE0128FBD0684600F0B3F80120009037
:100CE000002007904FF400710A910B900E90119024
:100CF0001390149015902090090421910A112392C9
:100D00002590269004202890299180032A90800124
:100D10002B9040122C9040002E906846FFF7F2FE78
:100D2000014948602FB000BD10000020054920B1E6
:100D3000086840F0040008607047086820F004006C
:100D40000860704700800240054920B1086840F003
:100D5000080008607047086820F0080008607047C5
:100D600000800240F0B50023274D29680A68002A58
:100D700001DA0020F0BD40F2F456B04206D9B0FBD3
:100D8000F6F206FB120414B1521C00E00122012A03
:100D90002CD10A6842F040520A60C0F30C0048604F
:100DA000086840F000400860C868286021E023B966
:100DB0002C68276847F0805727604E60541EA34276
:100DC0000ED10C6844F000540C60C2F10104C4EB75
:100DD000C41404EB440400EB8404C4F30C044C601E
:100DE0000C6844F000440C60C9685B1C9342DED37D
:100DF000296006484169490703D504214161002162
:100E000041600120F0BD0000080100200090024078
:100E10000248016841F00101016070470090024002
:100E200000B50120FFF790FFFFF7CCFD0120FFF791
:100E30007DFF0120FFF77EFD01205DF804EBFFF749
:100E40003DBD01210160002141608160C1600161FF
:100E50004FF4804242618161C161D21002624162FD
:100E60008162C162016341638163C16340220264A4
:100E7000202242648164C164016541658165C16568
:100E80000166802242668166C166016741678167AB
:100E9000C167D204C0F880205210C0F88420C0F886
:100EA00088101311C0F88C30C0F89010C0F894105E
:100EB000C0F89810C0F89C10C0F8A010C0F8A4208A
:100EC0005212C0F8A8209201C0F8AC205212C0F80B
:100ED000B020C0F8B410C0F8B8107047802000F0FF
:100EE00001B800000149086070470000143C01404F
:100EF000F0B5002201274FF0030C07FA02F40B684B
:100F00002340A3422DD1046853000CFA03F5AC43EF
:100F100004600C7906689C40344304600E79012E0D
:100F200001D0022E12D18468AC4384604C7985686C
:100F30009C402C438460456807FA02F4A543456051
:100F400044688D799540ADB22C434460C568560025
:100F50000CFA06F4A543C560CC799C40C3681C43D9
:100F6000C460521C102AC8D3F0BD10B54B07DB0E6D
:100F70009A40C90800EB8100016A0F249C40A143FC
:100F80000162016A1143016210BD41837047018310
:100F90007047FEE710B4203AD3B2054A526814688D
:100FA000D2885A4304EB420210BC00F01FB8000084
:100FB00014010020F0B507460D4640F23F140A4EDA
:100FC00008E021463846FFF7E5FF70688088201A60
:100FD00084B26D1C2A78002A05D07168601C80B22A
:100FE00089888842EDD2F0BD140100202DE9F04738
:100FF00007468A46904600255146384600F04FF88D
:10100000DFF86C902CE000F061F800231CE00C206D
:10101000B4FBF0F0C1008020884038F8156018411A
:10102000304201D10C2C05D901209840064206D14E
:101030000C2C04D9B9F8020000F044F803E0B9F828
:10104000000000F03FF85B1CD9F8040084889C4243
:10105000DDD87F1CBFB25146384600F020F86D1C29
:10106000D9F80400C088A842CDD8BDE8F0870000B8
:10107000140100200148406870470000140100205E
:1010800010B5002000F05CF9012000F059F90220B1
:1010900000F056F9BDE81040032000F051B900B54A
:1010A0000B460146202000F016F8194621205DF875
:1010B00004EB00F010B80000014908807047000000
:1010C000140100204FF0D041488070474FF0D041CC
:1010D0002220088070474FF0D04210805180704726
:1010E0002DE9F0410E4617461D46002400283CD14C
:1010F00000F04AF9012000F047F9022000F044F91D
:10110000032000F041F92EE057F8240018A1FFF762
:10111000A3F8F8B955F8240016A1FFF79DF890B18F
:1011200055F8240014A1FFF797F880B155F8240072
:1011300012A1FFF791F870B155F8240010A1FFF744
:101140008BF860B10EE0002000F02AF90AE00120DF
:1011500000F026F906E0022000F022F902E0032068
:1011600000F01EF9641CB442CED306A0BDE8F081A5
:101170006C656400310000003200000033000000A4
:10118000340000002F53544D3332463478374C45E9
:10119000442E68746D6C000000B587B002F03AFB15
:1011A00002F01CFC104801F037F806906FF0FF00C9
:1011B00001F032F805900C48C63801F02DF8049083
:1011C0000B490022CDE900210848029004AB05AA92
:1011D00006A9084802F03EFC064802F077FC0548E4
:1011E00002F0C4FC07B000BDC701A8C0E51D00089F
:1011F000411E00085001002070B50446094D2868C2
:10120000201AFA2802D32C6004F08CFE686841F2A0
:101210008831201A884204D36C60BDE8704000F029
:10122000B9BD70BD08000020014800F01DBE0000DF
:1012300050010020FEE7704770470000044A19B1D2
:101240001168014311607047116881431160704754
:1012500030380240044A19B11168014311607047E7
:10126000116881431160704710380240044A19B177
:101270001168014311607047116881431160704724
:101280004438024030B5254B196801F00C01244C5C
:10129000F1B1244D04291DD008291DD0046019681E
:1012A00001F0F0010909204A545C0168E140416005
:1012B0001C6804F4E054A40A145D21FA04F4846068
:1012C0001B6803F460435B0BD25CD140C16030BD4E
:1012D0000460E4E70560E2E7104A121F1168C1F3F9
:1012E000805C116801F03F01BCF1000F06D0B5FB36
:1012F000F1F11468C4F38814614305E0B4FBF1F123
:101300001468C4F3881461431268C2F30142521C8A
:101310005200B1FBF2F10160C1E700000838024061
:101320000024F40040787D01F5000020034B1A688A
:1013300022F0EC62084310431860704708380240FE
:101340001CB504460E48012150F82400FFF776FF33
:101350000B480A3830F81400009001208DF8040082
:1013600000218DF806108DF8070002208DF8050089
:101370000448694650F82400FFF7BAFD1CBD000080
:1013800008EC0008340100200349044A31F8101029
:1013900052F8200001837047FEEB00083401002062
:1013A0000349044A31F8101052F820004183704775
:1013B000FEEB00083401002070470000014908607E
:1013C00070470000DC0027420020244A116841F4E5
:1013D000803111604FF4A063116801F40031401CAA
:1013E00009B99842F8D11068800301D5012000E0C6
:1013F0000020012831D119484030016841F0805166
:1014000001601748016841F48041016013480830C9
:1014100001680160016841F400410160016841F424
:10142000A0510160011F0F4B0B60116841F08071EA
:10143000116011688901FCD50B4A40F20561116009
:10144000016821F003010160016841F002010160BF
:101450000168C1F381010229FAD1704700380240C6
:101460000070004019544007003C02404FF0E0215A
:10147000042804D0086920F0040008617047086956
:1014800040F004000861704700F02EB810B5124813
:10149000016841F4700101601048016841F00101E8
:1014A00001600E4A00210832116002680C4B1A409C
:1014B0000260031D0B4A1A60026822F48022026057
:1014C00006480C300160FFF77FFF03494FF00060D2
:1014D0008039086010BD000088ED00E0003802404F
:1014E000FFFFF6FE10300024024801680A31016057
:1014F0007047000000000020FEE702E008C8121F4D
:1015000008C1002AFAD170477047002001E001C1EC
:10151000121F002AFBD170471FB5416A064B0122FA
:10152000CDE90013CDE9021200F12B031946034A5D
:1015300000F0AAFB04B010BDF2D90008ECD90008F5
:101540001FB50446606A002833D00079002830D0E7
:1015500004F12404E0798DF80000207A8DF8010070
:10156000607A8DF80200A07A8DF80300E07A8DF899
:101570000400207B8DF80500D1F80E0003908869E7
:10158000029054F8240901F108010279012A11D0CE
:10159000022A01D142796AB1039A0068824208D1D5
:1015A00006226846FEF766FE002802D0204600F0BC
:1015B0003BF81FBD039A0068824208D0029A82421B
:1015C000F7D106226846FEF755FE0028F1D02046E6
:1015D00000F03BF81FBD000070B504460D4604F155
:1015E00024040E4EE07A217B40EA0120304400F0D2
:1015F00013FE02F0C9FA2168497A0844084980B20A
:101600000843B04201D200F57E400649884201D924
:10161000A0F57E4000F000FE286070BD0001FEA92C
:101620000000FEA9FFFEFEA910B50446606A007A1C
:1016300020B12046BDE8104000F007B82046FFF773
:101640006BFF616A6420087210BD2DE9F041054608
:101650006C6A0026284602F023FA10B1284602F0F0
:101660003BFA00276F60AF60EF608CB12771E780B5
:1016700067712760277221462846FFF7ADFF607A21
:10168000401C6072284600F010F83046BDE8F0813A
:101690000A2002F0D9F8044624B127606760278148
:1016A0006C62E8E74FF0FF30F0E710B550F8241F08
:1016B00001220A7100224A71C27A037B447A42EA0B
:1016C0000362837A00681B0443EA04231A4308B1C7
:1016D000407A00E0002010440A22B0FBF2F302FB43
:1016E0001300C880487A0A2802D94FF41670C880BF
:1016F00010BD4FF47A7205E00021401E00E0491C45
:101700009142FCD30028F7D1704700280BD0026A21
:10171000002A08D0937C082B05D10968926A91426F
:1017200001D100F081B8704770B505466DB12C6AE3
:1017300074B100224FF49A71104602F029FA6061E8
:1017400048B1E27C36494AB10BE06FF0090070BD48
:101750006FF0080070BD4FF0FF3070BD0A68521C7A
:101760000A60096821604068A06101210170A069D8
:101770004170A16906208870A0690026C6702068A3
:1017800000F04AFDA1694860A0690681A069468110
:10179000A069C660A07C0A2803D0052801D00428CF
:1017A00002D1A1696868C860A0690661A069466144
:1017B000A0698661002095F82A10814203D9291872
:1017C00091F82B1000E00021A36900F11C0299544C
:1017D000401C80B21028EED30020A26900F12C0139
:1017E0005654401C80B24028F7D30020A26900F173
:1017F0006C015654401C80B28028F7D3094800F091
:101800000BFDA169C1F8EC00A6830020A26900F1DC
:10181000F0015054401C80B24428F7D3002070BD22
:101820005000002063538263F8B505462C6A0C21F2
:10183000204600F08FF82846FFF776FF06463EBBAD
:1018400001223521204600F03BF80421204600F01B
:1018500045F804223221204600F032F8A06A02F056
:1018600093F90146204600F040F8204600F05CF86D
:10187000A08BF03081B2606902F027FB0095432312
:10188000074A6169606804F0E7FC284600F00AF83E
:10189000E07C401CE0741420E0833046F8BD00007A
:1018A000E8D9000810B5002809D0046A002C06D039
:1018B000606908B102F0AAFA00206061A06110BD61
:1018C00010B5838B5C1C84838469F033E154818B75
:1018D0004B1C83838069F031425410BD828B531CB2
:1018E00083838069F0328154704710B5828B0C0E6F
:1018F000531C83838369F0329C54828BC1F3074469
:10190000531C83838369F0329C54828BC1F3072478
:10191000531C83838369F0329C54828B531C8383D2
:101920008069F032815410BD002812D0818BFF23D2
:101930004A1C82838269F0315354002304E04A1C1C
:1019400082838269F0315354818B4429F7D38A070B
:10195000F5D17047827C8A4202D081740021C17423
:10196000704700002DE9FC47064688469146002E48
:1019700006D0B9F80A002A2804D2484602F046FAEE
:10198000BDE8FC87D9F8045005F10E04012000F0F1
:101990004FFC2188884214D140F2046000F048FCDA
:1019A000A18888420DD14FF4006000F041FC6188AD
:1019B000884206D140F6060000F03AFCA989884228
:1019C00003D0484602F022FADAE721463046FFF714
:1019D000B7FDD4F80E000190A0690090706820B1A6
:1019E0000099814203D1012702E0002700E000278F
:1019F0003FB1012304F1080201A9304604F086FC3E
:101A000006E0002304F1080201A9304604F07EFC40
:101A1000E08800F00DFC012802D002282ED129E038
:101A20003FB3022000F004FCE080D4F80E00A06177
:101A30007068C4F80E000620716A19B1097909B1FD
:101A4000104A10E004F108020DE0401EC0B2211857
:101A50000B7A8B74135C2B5418F800300B722B1814
:101A600018F8001099710028EFD1B2694946304644
:101A7000904703E001A93046FFF747FE484602F0D1
:101A8000C5F97DE7ECD9000830B400280FD04A68CA
:101A900002F10E018368CC6845681C401D40AC42D1
:101AA00005D10023921D30BC0C3104F02FBC30BC9A
:101AB000704700002DE9FC4105460E4614460E21F4
:101AC000304602F0CBF918B16FF00100BDE8FC819F
:101AD0002946204601F05FF908B1234B29E04FF079
:101AE000704002F051F8216800EA01074FF06040B1
:101AF00002F04AF8874223D101208DF8000000202F
:101B00008DF801005E208DF80200206802F03CF89C
:101B1000000CC0F306008DF80300206802F034F8D2
:101B2000000A8DF80400206802F02EF88DF80500F8
:101B30006B4605F12B023146284600F011F9C5E746
:101B4000A86821686A6801400240914203D0E868B1
:101B500038B105F10C0432462146284600F006F85B
:101B6000B4E76FF00300B1E7ECD900082DE9F05FAE
:101B700081460E46154609F12B0A4FF0FF384946BB
:101B8000304601F008F9F0B94FF0704001F0FCFF69
:101B9000316800EA01044FF0604001F0F5FF844233
:101BA00011D086B1306870B10121304600F0A8F93B
:101BB00000280ADBDFF8CCB000EB80070BEB8704D2
:101BC000A07B20B105E06FF00900BDE8F09F012087
:101BD000A073A07B012800D025B93146484600F00B
:101BE000ADF88046E5B3A07B022802D0012809D0D9
:101BF00045E004F1080352462946484600F0B0F893
:101C000080463CE00022284605E0017B012901D006
:101C1000012202E000680028F7D182B10189002288
:101C2000032001F0B5FF04466CB12946204602F0BE
:101C30006EF840B1204602F0E9F8002403E02C469B
:101C4000204602F06AF95CB1062001F0F3FE01467D
:101C500091B1002008604C605BF8270010B906E0E5
:101C60000DE010460268002AFBD1016001E04BF84C
:101C700027104FF0000802E0204602F0C7F8404667
:101C8000A3E70000B85800202DE9F05F0746DDF813
:101C90002CA088469346994600222A21032001F071
:101CA00077FF064676B1756805F10E040D9800F0D1
:101CB000BFFAE0800620796AC1B10979B1B1DFF8D5
:101CC00078B013E04FF0FF30BDE8F09F401EC0B287
:101CD000211819F800200A721AF800208A741BF8DB
:101CE000001029542A1818F8001091710028EDD11D
:101CF0000A980068C4F80E000C980068A0610120E2
:101D000000F096FA20804FF4006000F091FA6080B5
:101D100040F2046000F08CFAA08040F6060000F06B
:101D200087FAA881BA69314638469047044630465A
:101D300002F06CF82046C7E7ECD900081FB5012374
:101D4000064C021DCDE90213CDE9002400F12B035E
:101D50001946A21FFFF798FF04B010BDF2D9000882
:101D60002DE9F04105460E4674680620401EC0B2BB
:101D7000195C21542718115CB9710028F6D14FF471
:101D8000006000F055FAA08131462846AA69BDE8F6
:101D9000F04110472DE9F0410024114FA04604EB1B
:101DA000840507EB8506F07B401CC0B2F073B17B65
:101DB000022901D1F02803D201290AD1022808D32F
:101DC00057F8250018B100F043F947F8258086F848
:101DD0000E80641CE4B20A2CE1D3BDE8F08100005F
:101DE000B858002070B504460D466068808900F040
:101DF0001FFAB0F5006F08D0A0F50060063817D0C4
:101E0000204602F003F8002070BD21462846FFF767
:101E10003BFE6FF00D01204602F020F818B120467D
:101E200001F0F4FFEFE72946204601F071F8EAE7F8
:101E3000224605F12B012846FFF794FDE3E7000059
:101E400010B5732180F83210742180F833100449E2
:101E500041610449816101F0D1FB002010BD000007
:101E6000B51A0008FD36000870B50446204601F09A
:101E700001FC054655B12269214628469047044693
:101E800014B1284601F0C2FF204670BD4FF0FF306C
:101E900070BD2DE9F047804629B1087818B10C468D
:101EA0000025A94626E00020BDE8F08708EB85065E
:101EB000C6F8F440274626212046FEF7BCF918B1A3
:101EC00080F80090441C07E020213846FEF7B3F963
:101ED00008B180F8009000243D213846FEF7ABF9A8
:101EE00028B180F80090401CC6F8340101E0C6F823
:101EF00034916D1C102D01DA002CD7D12846D3E780
:101F00002DE9F35F04464FF00A08C1460A2300207A
:101F1000002500269A4684464B4F94B14B490978D8
:101F200001EB810207EB820292F80EB0BBF1020FC7
:101F300007D1D4F800B05268934502D148B2BDE849
:101F4000FC9F0A2B05D100EB800107EB8101897B07
:101F500061B100EB800B07EB8B0292F80EE0BEF153
:101F6000010F05D0BEF1020F1DD02CE043B22AE0D4
:101F700044B1D4F800E051688E4503D1334908706C
:101F800040B2DCE757F82B1031B1D17B61451AD351
:101F90004FFA80FA8C4616E0D17BA94213D34FFA50
:101FA00080F80D460FE044B12168D2F804B05945DD
:101FB00003D12649087040B2C1E7D17BB14202D3B8
:101FC0004FFA80F90E46401CC0B20A28B9D34FF030
:101FD000FF310A2B02D10198C00702D00198800777
:101FE00001D50846ABE74FF0000B0A2B01DADDB252
:101FF00018E0B9F10A0F02DA09F0FF0512E0B8F1B2
:102000000A0F02DA08F0FF050CE0BAF10A0F18DA3D
:102010000AF0FF0505EB850657F8260000F018F8D2
:1020200047F826B005EB850007EB800080F80EB07E
:102030000CB12168416080F80FB00448057068B2A7
:102040007DE708467BE70000B8580020F400002038
:1020500070B5044608E025462468686801F0D6FE9D
:102060002946062001F0AEFC002CF4D170BDD0E969
:102070000110081A704700F001B800000021094A59
:1020800001EB410302EBC303834206D101EB4101A3
:1020900002EBC101002008757047491C0A29EFDBDB
:1020A00070470000880100200020094900EB400231
:1020B00001EBC202127D22B1401C0A28F6DB00208F
:1020C000704700EB400001EBC00001220275704731
:1020D0008801002070B50646FFF7E6FF05460DB102
:1020E0000E4C07E0002070BD30466168FEF7B4F882
:1020F00038B12468002CF7D12846FFF7BFFF002035
:1021000070BDA0682860E0686860E068A860002092
:10211000E860207C2874284670BD000060D9000863
:1021200070B505460B46D5E90110884202D14FF043
:10213000FF3070BD0C1A944200DD14462968224617
:1021400001441846FEF73CF8A8682044A8602046E1
:1021500070BD00002DE9F0410546DFF89C8005F1D7
:102160002E06B71CD8F80000A0B1D8F8080088B136
:10217000D8F8040070B1002408E0D8F8080050F83E
:1021800024103046FEF768F870B1641CD8F80400DB
:102190008442F2DB3046FEF757F8A7280DD23046CE
:1021A000FEF752F8044609E0D8F80030C02239465C
:1021B000204698476885BDE8F081A72412220FA128
:1021C0003846FDF7FDFF2246314605F14200FDF796
:1021D000F7FF0FA128190A68C0F842208988A0F8E3
:1021E00046103E2100F8481F002141703846FEF796
:1021F0002BF86885DFE700002C0000203C623E2AB7
:102200002A2A554E4B4E4F574E205441472000002E
:102210002A2A2A3C2F623E00010600F47F4241EA4E
:10222000022100F47F0241EA122141EA1060704766
:102230000106090C41EA10207047000010B50C4659
:102240000121204603F00FFD00F010FC0146A9B16A
:10225000204601F0C1FF0B49204603F0C2FB0A49AA
:10226000204602F048FA04220849204602F068FF9E
:102270000749204603F0F4FC002010BD4FF0FF306A
:1022800010BD0000EF250008E9220008B125000874
:10229000352A000870B505460C460021284601F095
:1022A0009BFF0021284603F09CFB0021284602F0FA
:1022B00022FA00221146284602F042FF0021284659
:1022C00003F0CEFC204600F0DFFB284601F0EAFFD9
:1022D000002806D02846BDE870400422014902F0DB
:1022E0002FBF70BDB1250008002801D000F0CCBB85
:1022F000704700002DE9F743064617464FF00008E7
:1023000086F82C80019801782F2901D1417889B174
:102310003F21FDF790FF054615B185F800806D1C43
:10232000DFF8EC90D9F81000B0B3D9F80C0098B3EE
:10233000002425E00024DFF8DC9059F83400FFF792
:10234000C9FE054659F8340001902DB109EBC400CF
:10235000007986F82C0002E0641C052CEDD3A5BBA7
:1023600001A800F059F8054686F82C8047E0D9F816
:102370000C0050F834100198FDF76EFF90B1641C0A
:10238000D9F810008442F2DBD9F81000844203D15E
:1023900015B13F2005F8010C0198FFF79BFE05469B
:1023A000A5B117E029463046FFF773FD0146D9F87D
:1023B0000C0006F59A7300EBC40006F1F402D0F8A5
:1023C00004C02046E0470190DEE718E001A800F0D5
:1023D00023F805469DB186F82C800024DFF8308074
:1023E00008F11408019858F82410FDF70EFF18B1F1
:1023F000012086F82C0002E0641C042CF2D33A463B
:1024000029463046019B00F031F8BDE8FE8300000C
:102410002C00002084D9000810B504460AA02060D2
:10242000FFF758FE00280DD10AA02060FFF752FEEA
:10243000002807D10AA02060FFF74CFE002801D138
:102440000021216010BD00002F3430342E68746DDF
:102450006C0000002F3430342E68746D00000000D2
:102460002F3430342E7368746D6C000070B50446E0
:1024700015460023F1B1238584F8F1300868E06146
:1024800048686062086820622160086860604A6885
:1024900062612376097C89B185B109A101F0CEFD85
:1024A00060B16168401A001D014461606169081AE9
:1024B000606103E02360636063612376002070BD88
:1024C0000D0A0D0A000000002DE9F0470D460668D0
:1024D000286808B9686818B16FF00A00BDE8F0878D
:1024E000A86890B1314601F0EBFBA868016871B1B2
:1024F000068940F2FF318E4200D30E460023324659
:10250000264901F04EFC254C03E0AE60EDE774680F
:1025100076896FF00909072E31D3324620A1204673
:1025200001F08CFD58B3002704221EA12046FDF7C0
:10253000AEFEB84618B184F804804846CEE7E41CE5
:10254000361FB6B2324619A1601C01F077FD28B9DA
:10255000324613A1601C01F071FD0127011B491EC9
:102560008AB260B1A0420AD9611C84F8008001F8E7
:1025700002803A462846BDE8F047FFF7BBBEA86890
:1025800001F0BCFBA9680989B1F5806F04D20A2863
:1025900002D86FF00D00A1E748469FE778020020BF
:1025A0000D0A0000474554200000000020000000F4
:1025B00010B50C46014681B1087E401CC0B20876B9
:1025C00004280FD0086830B1204600F04DF810B153
:1025D000204602F0BDFB002010BD2046FFF75AFE4A
:1025E000002010BD2046FFF755FE002010BD7FB52E
:1025F00004460E466FF00405029843B938B134B171
:102600000189304603F002FA206878B114E030B155
:102610000189304603F0FAF9029801F0F7FB2146F0
:102620003046FFF737FE002004B070BD3246214629
:1026300002A8FFF749FF054615F10E0005D0A06876
:1026400018B101F0E3FB0020A06015B10A3505D0F8
:1026500008E02146304600F007F803E02146304606
:10266000FFF718FE0020DFE72DE9F84F80460C4603
:10267000002700256069A0BB206850B1FFF7F7FC78
:1026800000280CDC21464046FFF704FE0020BDE890
:10269000F88F21464046FFF7FDFD0020F7E7E06890
:1026A00008B1266910E0B8F838004600B0B201F071
:1026B000CBF8E06008B1266104E006EBD670461066
:1026C000642EF3DCE06868B13246E1682068FFF709
:1026D00027FD002808DA21464046FFF7DBFD0120F0
:1026E000D5E706E00020D2E76061E16861606062E2
:1026F000E16194F82C00D8B1B8F86E2000926168BE
:10270000E069884243D9401A904200DC0090B8F852
:102710003800BDF80020B2EB400F01D94000009016
:1027200001236A46404600F0C4F905461DB32BE07C
:10273000B8F86E106069814201D2009100E000900B
:10274000B8F83800BDF80010B1EB400F01D94000D7
:10275000009000236A464046616800F0AAF900280C
:1027600008D10127BDF8000061680144616061691A
:10277000081A60614CE10127BDF80000616801445E
:1027800061606169081A6061B8F86E0028B14FF0A5
:102790000109DFF89CA2002608E1384677E7BDF87A
:1027A000001041B194F8F120052AF5D2DFE802F0DB
:1027B00005122C6DBE00384669E7E1690A783C2AAB
:1027C00003D184F8F190A4F82890401E6062491C5F
:1027D000E161EBE0218D05290AD0E269DAF800C059
:1027E00013781CF801C0634507D1491C218506E018
:1027F0002685022084F8F100D8E084F8F160401EBC
:102800006062521CE261D1E0218D49B9E3691A7816
:10281000202A1BD0092A19D00A2A17D00D2A15D030
:10282000E06900782D2816D0202814D0092812D06D
:102830000A2810D00D280ED011B384F8F160606A18
:10284000401E6062E069401CE061AFE0401E6062D3
:102850005B1CE361AAE069B1032084F8F10084F80D
:102860002D1004F12E000E54E06900782D2804D0BC
:102870002685E4E784F8F160E1E7A4F82890DEE734
:10288000A4F8289084F82E00D9E7218D49B9E3698E
:102890001A78202A16D0092A14D00A2A12D00D2A12
:1028A00010D0E269DAF804C013781CF801C063455F
:1028B00035D1401E6062521CE261022907D0491CDA
:1028C000218573E0401E60625B1CE3616EE0204680
:1028D000FFF740FC2685042084F8F100E0692062BF
:1028E0006168884262D9BDF80020401A904200DA3F
:1028F000009094F82C0008B1012300E000236A4600
:10290000404600F0D6F805469DBB0127BDF8000003
:102910006168014461606169081A606146E0401EB7
:102920006062521CE26184F8F1603FE0226A6068F4
:1029300082421FD9121A8A4200DA0092BDF80010B2
:1029400061B194F82C1009B1012300E00023014685
:102950006A46404600F0ADF8054600E0002545B95E
:102960000127BDF800006168014461606169081ACF
:1029700060611BE0208D628D904214D2121A8A424F
:1029800000DA009204F13001014401236A46404616
:1029900000F08FF805464DB90127208DBDF80010D5
:1029A0000844208502E0268584F8F160606A10B151
:1029B000002D3FF4F4AE94F8F100042828D06168AB
:1029C000E069884224D9B8F86E20401A904201DDAF
:1029D000009200E00090B8F83800BDF80020B2EB9B
:1029E000400F01D94000009094F82C0008B1012359
:1029F00000E000236A46404600F05BF840B901273A
:102A0000BDF800006168014461606169081A606195
:102A1000606950B92068FFF72AFB002805DC2146D1
:102A20004046FFF737FC002031E638462FE600002D
:102A30007CD9000810B50A46014631B1002008765D
:102A40001046FFF711FE002010BD002010BD000051
:102A5000014AD060116170472C000020024B1860C1
:102A600099605A60704700002C00002070B54FF448
:102A7000BA75284600F0E8FE04461CB129462046F7
:102A8000FDF7B7FB204670BD70B50446002C0FD093
:102A90002068002510B1FFF7EEFA2560E06810B15C
:102AA00000F0A2FEE5602046BDE8704000F09CBE4C
:102AB00070BD2DE9F04105460F461646984634880C
:102AC000434622463946284603F057FA411C09D1AD
:102AD000B5F86E1019B1B5F87010082901D30124AA
:102AE00000E06408411C01D1012CE9D83480BDE824
:102AF000F08100000549044806C9C0E9021201211D
:102B00000830FFF7A5BF00001800002074D90008A6
:102B100010B500F029F8FFF7EDFFBDE810400148BF
:102B200000F002B8E4D9000870B5054602F0D6F806
:102B300004460121204603F096F84FF4FA52294644
:102B4000204601F04BFBFF21204602F07FF80446AF
:102B50002146204601F040FB2046BDE87040014977
:102B600001F0DABA3D220008024801224168024819
:102B7000FFF774BF18000020250600080A4603214D
:102B800000F0A4B82DE9FF47054689466C68208807
:102B900000F0FCFFC0F303204FEA8008C8F10001F9
:102BA0000F46284601F05AF900287DD128890428CB
:102BB0007AD36868007808287CD101264FF07040ED
:102BC00000F0E2FF216900EA010A4FF0604000F0E6
:102BD000DBFF824500D10026494604F1100000F0D9
:102BE000DAF800B1002666B12889082868D328469B
:102BF00000F0ADF858B104B02846BDE8F04701F048
:102C000005B904B02846BDE8F04701F0FFB822211D
:102C1000284601F023F9D8B14146284601F01EF9B3
:102C2000E0B929890022022000F0B2FF0646AEB1C9
:102C30002946304601F06BF880B974683946304651
:102C400001F00CF950B9284601F0E0F835460BE0E8
:102C50006FF02101284601F001F928B104B028469F
:102C6000BDE8F04701F0D2B86868E16803912269D5
:102C7000E2602161002606704680208900F086FF10
:102C8000C0B240F47F40FFF7D3FA2081668141460D
:102C9000284601F0E3F840B90120CDE90109FF23FE
:102CA000002204F10C0101E00AE003E0009628464E
:102CB00000F02CFA04B02846BDE8F04701F0A6B8B1
:102CC00004B02846BDE8F04701F0A0B82DE9FC4764
:102CD00006468846914600222421012000F058FF34
:102CE0000546002D27D077686C6884F8008084F84A
:102CF00001904FF00008A4F80480A4F806806868EA
:102D0000716808301C22FDF75BFAA4F8028069891B
:102D1000204600F016F860800120CDE90080FF23F6
:102D200007F10C020021284600F0CEF92846BDE844
:102D3000FC4701F06BB8BDE8FC870A460B21FFF7A2
:102D4000C5BF10B500F0F2FCC04380B210BD70B535
:102D500005460024002613E06989686800F0E6FC57
:102D6000204481B201EB10446889C00707D0C6F146
:102D70000100C6B2E0B2C4F3072141EA00242D6885
:102D8000002DE9D126B1E0B2C4F3072141EA0024C5
:102D9000E04380B270BD0068421C06D028B191F8B3
:102DA0003120920703D400207047012070474A6801
:102DB000824201D100207047896800EA01030A407D
:102DC000934202D10143491C01D0002070470120E9
:102DD000704700002DE9F74F84B00598068D4FF03D
:102DE000140B02220021104600F0D2FE8246BAF1F6
:102DF000000F23D0AAF80A60AAF80860434820F020
:102E00000305CAF804500498142241682846FDF7C7
:102E1000D7F9E88800F0BAFEC0F30C0700F40050C0
:102E2000019004980089143884B2143EF01706EB20
:102E30005070C0F3CF00CDE902065AE04FF0FF30EA
:102E400007B0BDE8F08F0398844202DC4FF001091F
:102E500001E04FF000090198C7F30C060643B9F1F1
:102E6000000F01D146F4005601D0204602E002983E
:102E70004FEAC0001FFA80F85B46424605F1140194
:102E8000049800F08EFF58441FFA80FB3046FFF78D
:102E9000CFF9E88008F1140080B2FFF7C9F9688023
:102EA0000020688114212846FFF74BFF6881B9F1A3
:102EB000000F05D004F1140081B2504601F005F86E
:102EC00000221146022000F063FE0646C6B15146BC
:102ED000304600F009FF05983146069A4369984745
:102EE000304600F093FFA4EB080084B20298384407
:102EF00087B2002CA7D1504600F088FF00209FE742
:102F0000504600F083FF4FF0FF3099E7DB5200207E
:102F10002DE9F84F06460F464FF0010A75682888DC
:102F200000F034FE0421B1EB103F05D0304600F034
:102F30006DFF0020BDE8F88F288800F027FEC0F361
:102F400003204FEA8009688800F020FE014670895E
:102F5000484502D33089884204D2304600F056FFFB
:102F60000020E7E7304600F0B0FF4FF001083C4694
:102F700005F11000DFF848B10090204600F090FD08
:102F800058B1201D09D0606838B12969814212D03A
:102F900021460098FFF7FFFE68B9B8F1000F04D092
:102FA0004FF00008DBF8004000E02468BC4200D18C
:102FB0002468002CE1D17CB9288900F0E7FDC0B27B
:102FC000112809D105EB0900408800F0DFFD4428F5
:102FD00002D13C464FF0000A4FF070484FF0604974
:102FE000BAF1000F17D0E868A8B1394605F10C0016
:102FF000FFF7D1FE50B9404600F0C6FDE96800EA8F
:10300000010A484600F0C0FD824504D1304600F078
:10301000FDFE00208EE7ACB143F6FF70FFF708F924
:10302000E988084205D0304600F0DAF8064676B165
:103030007568244C6760A5603946304600F09EFFF5
:1030400038B139E0304600F0E1FE002072E70020A0
:1030500070E7288900F09AFDC0B2012814D0062834
:103060000DD0112806D0394605F11000FFF793FE68
:1030700078B11EE03946304603F020F81CE03946AE
:10308000304601F069FB17E039463046FFF77AFD1C
:1030900012E0404600F078FD296900EA0107484641
:1030A00000F072FD874204D0756002213046FFF7C0
:1030B00065FD304600F0AAFE00206060A06039E7A0
:1030C00068000020E0000020F0B505462DED028BE1
:1030D00083B00E46DDED0A8A9DED0B8A14461F462D
:1030E000204600F067FA70B1CDED008A8DED018ABF
:1030F00002903B4622463146284600F007F803B0CE
:10310000BDEC028BF0BD6FF00300F8E72DE9F05F36
:103110000646DDE90ABA0C9D884617469946EFB384
:103120001421304600F09AFE18B16FF00100BDE89E
:10313000F09F7468208900F029FD69F31F20FFF7D4
:1031400077F8208100F022FD20F0FF0040EA0A001D
:10315000FFF76EF82081386820614BF48A40FFF752
:1031600067F820803089FFF763F860804FF000092E
:10317000A4F80690DFF864A0BAF80000FFF758F84A
:10318000A080BAF80000401CAAF80000B8F1000FB7
:1031900008D0D8F8000028B1E06000E009E0A4F809
:1031A0000A9008E0281D02D06868E060F5E700207A
:1031B000FBE777681037288D48B13189814206D9FD
:1031C0003A4629463046BDE8F05FFFF703BE3A466F
:1031D000314628466B69BDE8F05F1847E0000020E3
:1031E0002DE9F05F83460027DBF80450288800F0C3
:1031F000CDFCC0F3032005287ED1E88800F0C6FC92
:10320000C0044FEA1048688800F0C0FC04462888D3
:1032100000F0BCFCC0F30320404204EB80001FFA26
:1032200080F9584600F06AFD0646DFF82CA1BAF88E
:10323000000030440A280AD93146284600F07EF9B9
:10324000002859D0BAF8000030440A287FD8DAF8AC
:1032500004400DE06069E968884207D1A0692969E6
:10326000884203D1A089A988884203D027462468D0
:10327000002CEFD12CB1E88800F088FCC00408D005
:1032800012E03146284600F0F7F80446002C5ED0E4
:103290000AE0E08900F07AFCC00405D01422294637
:1032A00004F10800FCF78CFFBAF800003044AAF8DB
:1032B0000000E88800F06AFC800406D4A07F40F09B
:1032C0000100A07708EB0900A0835946204600F0D2
:1032D00045F8C8B3A08B1430A08360684668356891
:1032E000142204F108013046FCF76AFFA08BFEF7B8
:1032F0009FFF7080002000E029E0F08070811421A1
:103300003046FFF71EFD7081D4F804806FF013097A
:1033100009E06E684946284600F0A0FD294640466F
:1033200000F0CEFC3568002DF3D13946204600F080
:1033300091F8404600F0E2FCBAF80010081AAAF82A
:1033400000004046BDE8F09FFFE70020FAE758463E
:1033500000F05CFD0020F5E7EC0000202DE9F047CF
:1033600007460E4600240125D6F80480B8F802006E
:1033700000F00CFC8146B8F8000000F007FCC0F338
:103380000320404209EB8009B8F8060000F0FEFB7C
:10339000C004030C726800201060938003EB0900E6
:1033A0001FFA80F8A2F8068079681CE04868B0F837
:1033B00004C063450CD2116044B1B4F806C0634543
:1033C00039D38088804536D826600EE07E600CE0D8
:1033D00031D0C1888B422ED31CB1E188614500D029
:1033E0000025016804460029E0D141B934B12660C6
:1033F000E0889188884202D0002500E07E60B87F96
:10340000C00716D095B178684068808808B100255B
:103410000CE0116808E04868D1888288914201D0A8
:10342000002503E0024601680029F4D12846BDE8E2
:10343000F0870020FBE7304600F060FC01460448BE
:103440000288511A0180304600F0E0FC0020EEE7CF
:10345000EC00002030B40B46064902684C688442F8
:1034600001D14A6000E01A60014630BC052000F03E
:10347000A9BA0000EC00002070B506460D460520F4
:1034800000F0D8FA044654B92946304600F056F800
:10349000A84203DB052000F0CDFA04468CB12021C0
:1034A0002046FCF7A6FE0320E0770748416821602C
:1034B00044601422314604F10800FCF781FE2046E6
:1034C00070BD002070BD0000EC0000202DE9F0412F
:1034D00006468846002574686068818891B900684E
:1034E0007060142206F108016068FCF769FE012192
:1034F0002046FFF722FC204600F000FC054620464F
:1035000000F084FC746809E0606827460468384667
:1035100000F0F4FB0544384600F078FC002CF3D1B1
:1035200041463046FFF796FF03490888401B088054
:103530002846BDE8F0810000EC0000202DE9F041B4
:1035400005460F460026DFF868800022002300248D
:10355000D8F804001AE04169D5F80CC0614509D1DA
:103560008169D5F810C0614504D18189B5F804C0DE
:10357000614507D0641CC2B1C17F92F81FC061458C
:1035800000D80246016801B1034608460028E2D18E
:1035900022B119461046FFF799FF0644BE4201DAF0
:1035A000012CD2DC3046BDE8F0810246EAE700009B
:1035B000EC00002070B505460E4804680DE020467A
:1035C00000F06EFA40B1A0682968626801400240CC
:1035D000914201D1204670BD2468002CEFD1064CE9
:1035E000206820B100F05CFA08B1206870BD0020AE
:1035F00070BD0000680000206C00002070B504461B
:10360000062004F82A0F022060700020A070E070ED
:1036100020716071A071A4F12A0404F12B01FDF75F
:1036200035FB40F2DC502085322084F83100022244
:103630000C490D48FDF78CF904220C490C48FDF7A4
:103640004BF90024084D4FF4400605EB4410314679
:10365000FDF7A2F9641C022CF7DBBDE87040FDF712
:10366000DFBB000010720020005A0020405A0020EA
:1036700080590020F0B587B0002501A8FDF724FA95
:1036800001A804AB07C807C3049881B2059F0322B1
:10369000104600F07DFA06465EB1344607E06289C6
:1036A00079196068FCF78CFD608905442468002C5A
:1036B000F5D1104A10688168012901D9006800E03D
:1036C000069800214FF0004302E00360C068491CE7
:1036D0001468A4688C42F8D81068002181600648FC
:1036E0004269120602D580224261816007B03046ED
:1036F000F0BD0000100100200090024070B50C46A3
:10370000002509480068866807E0628970196168C9
:10371000FCF756FD608905442468002CF5D1A8B259
:10372000FDF720FB002070BD0801002000220AE008
:1037300010F8013B1B0290F800C04CEA030C401C3F
:103740006244891E89B20129F2D811B100780002C1
:10375000024490B200EB1240010C02D081B201EBA6
:10376000104080B2FEF764BD00F016F800F03CFC9B
:10377000FDF786FCFDF71AF8FDF70EFDFFF7C8F917
:10378000044CFDF767F808B1FDF74EFD2068FDF722
:1037900033FDF6E7000000201CB502208DF8040080
:1037A0008DF8050000208DF806008DF80700012136
:1037B0008803FDF75BFD01210846FDF73FFD4FF44F
:1037C00080700090074C69462046FDF791FB00226F
:1037D00008212046FDF7C9FB00216001FDF7A6FD89
:1037E0001CBD00000000024000280FD008494A68B4
:1037F00090420BD38A68904208D2083800220271A6
:10380000CA68904200D2C86000F08EBB70470000CA
:103810005400002010B50A480A4A20F00300506006
:103820004FF42053038000214180017100F52051A5
:10383000916001240C710B804B801470D06010BD1E
:103840007B060020540000202DE9F04168B1C01C27
:1038500020F0030082B20C2A00D20C224FF4205C2C
:10386000624504D90020BDE8F0810020FBE7214D2E
:10387000EF686B68F81A81B2C2F5205435E0581829
:10388000067986BB0688761A083E96422CD30488B1
:1038900002F11408641A083C0126444514D30A4472
:1038A000083294B21A194FF0000882F80480B0F878
:1038B0000080A2F800805180048006711188614563
:1038C00003D09A1C8C5200E00671B84209D1AA6854
:1038D00002E009881944E960E9680C790CB1914269
:1038E000F7D10830BFE7FFE7595A8C42C7DC002008
:1038F000B9E70000540000202DE9F04FC91C21F069
:10390000030189B20C2900D20C214FF4205C6145DF
:1039100002D90020BDE8F08FDFF8A490D9F8044068
:10392000A042F7D3D9F808209042F3D2A0F10802C0
:10393000131B9BB21588EE1A083E1FFA86FA5145F2
:1039400002D94FF00000E5E7E4D025441C4E95F87D
:1039500004B04FF00008F7687668BBF1000F06F17D
:10396000020616D001F114055545D3D81944083183
:103970008DB26119B94201D2C9F80C1081F80480E6
:1039800014880C804B80158009886145C2D08D5306
:10399000C0E7B5F800A01944083189B2AF4202D19E
:1039A0006518C9F80C500C4484F80480A4F800A0F1
:1039B0006380118022886245ACD09153AAE7000051
:1039C00054000020002905D0034A52F820300B6033
:1039D00042F82010704700008C2E0020F0B5002027
:1039E000401C80B20928FBD3104820F003010020BE
:1039F0000E4B0F4D0026273B05F1120443F82060C3
:103A0000002209E053F820700F6043F8201035F8C9
:103A100010703944521C92B234F810709742F1D8A9
:103A2000401C80B20928E9D3F0BD0000B32E00206D
:103A3000ACD900080146092901D300207047044A87
:103A400052F821000028F9D0036842F8213070476D
:103A50008C2E002070B50446DDE9055C049E002034
:103A60006060A060E06084F8310020626062E6611E
:103A70000A4E307884F83400401C3070C4F810C00E
:103A8000204600F012F82046A84708B1002070BD7B
:103A9000706820607460204670BD000064000020E3
:103AA00090F8310000F00100704770B506461446EA
:103AB0001D46304600F020F82146304600F050F810
:103AC00029463046BDE8704000F00FB801498860D3
:103AD000704700006400002090F83110CA0703D03E
:103AE00021F0010180F83110704711B10968C160FF
:103AF00070470021FBE7000070B505460C46696879
:103B0000206888421ED0144800680AE001686A688C
:103B1000914205D1C668012100F0B2FA304600E0BA
:103B2000C0680028F2D10D48006809E007D001689C
:103B300029B16A68914202D144B121680160C0682C
:103B40000028F3D12CB12068686070BD4FF00001EF
:103B5000F4E74FF00000F7E7880000208400002021
:103B600011B10968816070470021FBE790F83110BE
:103B7000CA0708D141F0010180F83110890602D549
:103B8000011DFEF7DBB87047FEF746BBFEF750BBE2
:103B90002DE9F0470E469046002540B1012807D098
:103BA000022807D0032807D00020BDE8F08714259D
:103BB0001435ADB20E35ADB24FF0010A4FF0000929
:103BC000B8F1000F4CD0B8F1010F64D0B8F1020F7A
:103BD00061D0B8F1030F01D00020E6E70820FFF71D
:103BE00029FF0446D4B184F80C80C4F80090601911
:103BF000133020F0030060602681ED1C25F00300E7
:103C0000C0F50070B04200DD304680B26081A4F89B
:103C10000EA02746351A4FF4007619E00020C4E7BD
:103C20000820FFF707FFB0B180F80C8080F80D90F6
:103C3000C0F800903860A9B20181B14200D331468A
:103C4000418100F110024260A0F80EA06D1A0746F3
:103C5000002DE5DC2CE0204600F0D8F80020A4E799
:103C600005F1130020F00301F01C20F003000844CC
:103C700080B2FFF7E9FD04465CB16019133020F013
:103C80000300606026816681C4F8009084F80C907F
:103C90000EE0002089E70720FFF7CCFE04466CB158
:103CA000C4F8049026816681C4F8009084F80C80E2
:103CB000A4F80EA084F80D90204676E7002074E763
:103CC00010B500280FD000290DD004E003890C891D
:103CD0002344038110460268002AF7D102890B8928
:103CE0001A440281016010BD10B50C462146FFF751
:103CF000E7FF2046BDE8104000F00FB9002102E0C8
:103D0000491CC9B200680028FAD1084670472DE95D
:103D1000F04705460C460026002725B11CB128892E
:103D20002189884203D26FF00900BDE8F0876FF067
:103D3000080968896189801BC91B884202DB1FFA58
:103D400081F801E01FFA80F860684246C11968688E
:103D50003044FCF735FA06EB080086B207EB0800A2
:103D600087B26889B04201D100262D686089B842C7
:103D700001D8002724683CB160892189884203D199
:103D8000206808B14846D0E73DB168892989884252
:103D900003D1286808B14846C7E7002CC9D10020E4
:103DA000C3E72DE9F047894616464FF0000828B1D1
:103DB000B9F1000F05D00027044622E00020BDE83D
:103DC000F0870020FBE72BB16089984202D8181ACF
:103DD00083B215E06089C01A85B2B54200D9354674
:103DE00060682A46C11809EB0700FCF7E9F908EBFF
:103DF00005001FFA80F8781987B2701B86B200237D
:103E000024680EB1002CDED14046D8E770B508B169
:103E1000002407E0002070BDC189491E89B2C1811C
:103E200021B100200028F7D1204670BD0568017B34
:103E3000032909D001290CD002290AD0FFF7D4FCAC
:103E4000641CE4B22846EDE701460820FFF7BAFDFE
:103E5000F6E701460720FFF7B5FDF1E749B140B1AC
:103E6000002908DA4A4293B242899A4204D20120D8
:103E70007047002070478BB2027BD0F804C03AB183
:103E8000032A05D0022A0ED0012A0CD00120704747
:103E9000ACEB0102426000F110039A420BD2C0F871
:103EA00004C00120704700290DDA42899A420AD3E2
:103EB000ACEB0102426042890A444281028911440A
:103EC0000181002070470120704770B502898A4245
:103ED00022D98A1A0D46044691B205E0281A85B205
:103EE00020890844208124686089A842F6D3207B79
:103EF00050B96089A84207D06068001B284481B28D
:103F00002046FFF7F9FC044665812581206808B149
:103F1000FFF77CFF0020206070BD002802D0C1891F
:103F2000491CC1817047000030B5134C018862689C
:103F30001144931C88420DD00D795DB9A568A94242
:103F400008D0E5688D4200D1E0600D8805800988C1
:103F5000851ACD524188114481420BD00D79002D34
:103F600008D1E568854200D1E16004880C800088B2
:103F7000891AC15230BD0000540000202DE9F047DD
:103F800080460026D8F804703889FFF7FFFD00F05E
:103F9000FF090025DFF84CA0DAF800401BE0207C88
:103FA000484516D1D4F814C0BCF1000F11D007F168
:103FB0000C0342462146A069E04750B14FF000088B
:103FC000012635B1E068E860DAF80000E060CAF880
:103FD00000402546E4680EB9002CE0D13046BDE82B
:103FE000F0870000700000207CB501208DF80400EF
:103FF00000208DF805008DF806008DF807000121DE
:104000004020FDF71BF9802000900B4C69462046AC
:10401000FCF76EFF80212046FCF7B7FF4FF4FA75DE
:104020002846FDF766FB80212046FCF7B0FF2846B6
:10403000FDF75FFB7CBD0000001802402DE9F04158
:1040400004460F4616463846FCF7FEF805460DB105
:1040500026440CE02046BDE8F0813978884205D13D
:104060002A4639462046FCF712F938B1641C2078FC
:1040700010B16119B142F0D90020ECE72046EAE71F
:104080002DE9FF5F04468B46207C0A2832D0D4F805
:104090005880D4F824A0BCB320680290201D36D0EC
:1040A00060680390278B268CD4F89050D4F8149035
:1040B0002146184801F012F8A06F08B101F08EFDFA
:1040C000606F08B101F08AFD21460220FFF77AFCFB
:1040D0001DB16FF004014846A847BBF1000F07D09F
:1040E000CDE9007603AB02AA5146404601F018FD27
:1040F000BDE8FF9F07482146001D00F0EFFF214665
:104100000220FFF75FFCF3E7FFE70020C5E7002090
:10411000C7E7000088000020C16170476FF004000D
:104120007047000070B505460220FFF783FC044687
:104130006CB900F0FBFC0220FFF77CFC044634B9AC
:10414000284600F0CFFC0220FFF774FC0446D4B3ED
:10415000A0212046FCF74DF804F11804402004F893
:10416000070C41F2D060A4F856004FF00003A4F809
:10417000583040F668302082608204F80E3C4FF0E0
:10418000FF0004F80D0C4FF4067020844FF0060079
:104190002086A385E0854FF0FF30E0834FF00100DB
:1041A000608700F0CDFDE06420646063206507480F
:1041B0008068A06123770648E0660648E06784F8D7
:1041C0008530A4F11804204670BD00007400002062
:1041D000E959000800DD6D00416170472DE9F041AB
:1041E00005460C46287C18B16FF00C00BDE8F08144
:1041F00012B900F077FD0246294800686FF00A0600
:104200000DE0018B914209D130B1016821B11CB19F
:1042100023680BB1994201D13046E7E7C068002816
:10422000EFD11F4F103F78690DE0018B914209D10A
:1042300030B1016821B11CB123680BB1994201D1A1
:104240003046D3E7C0680028EFD1F8680DE0018B55
:10425000914209D130B1036823B11CB1216809B181
:104260008B4201D13046C1E7C0680028EFD1B86960
:1042700009E0018B914205D101682368994201D17F
:104280003046B3E7C0680028F3D114B1206800B10C
:1042900028602A83F868E860FD600020A6E7000037
:1042A0008400002070B504460526207C082853D2DF
:1042B000DFE800F004212D394152524900252B49F5
:1042C000C868A04202D1C068C8600CE0C86107E0BD
:1042D000C068A04203D1C969E068C86003E0C86152
:1042E000C8690028F4D10020E06021460220FFF7D1
:1042F00069FB002432E000251C482146103000F004
:10430000EDFE21460320FFF75DFB002426E000259B
:1043100016482146143000F0E1FE21460220FFF746
:1043200051FB00241AE00121204601F064FC0546FF
:10433000A5B9267412E00121204601F05CFC054677
:1043400065B926740AE00121204601F054FC0546B7
:1043500025B90920207401E0002500241CB115B9FD
:10436000204600F0F5FC284670BD000074000020D7
:1043700010B504460846FFF71DF938B1008D28B185
:10438000283880B2844200D220460446204610BD20
:104390002DE9FF4F83B0054611990598084306990A
:1043A00050EA81706FF0090102D0059820B107E052
:1043B000084607B0BDE8F08F049808B10846F8E752
:1043C000B5F86E100598814207D215F8220F40F01B
:1043D000800028704FF0FF30EBE7DDF814A0049860
:1043E00000901198C00701D0042000E0002011992E
:1043F000890701D50C2100E0002100EB010BA86E1C
:104400000190B5F87080B8F1080F04D20024274657
:104410000294A146B4E015F8220F40F08000287005
:104420004FF0FF30C5E7288FA0EB0B01514500DBB3
:1044300051461FFA81F90420FFF7FCFA0446002CCC
:104440005FD000262660666027B302990C60029454
:104450001098C10720D009EB0B01002289B2104649
:10446000FFF796FB60600100EAD00846FFF746FCC4
:1044700000EB08011FFA81F8049939B161684A46D6
:10448000496801EB0B000099FBF79AFE61684868E8
:10449000A06025E02746DAE7002259461046FFF7DC
:1044A00077FB60600100CBD00846FFF727FC00EBEC
:1044B00008011FFA81F8BAF1000F11D00122494614
:1044C0000320FFF765FB010016D008F101081FFA71
:1044D00088F8009A4A60009AA2606068FFF7F0FBD3
:1044E000B8F1080F0DD8A4F80C9014216068FFF7FC
:1044F000B5FC002805D105E06068FFF787FC0020C7
:10450000606082E0616848682061288BFDF790FE5A
:1045100021690880288CFDF78BFE2169488001986D
:10452000FDF77AFE21694860206946824FF6C07027
:10453000FDF77EFE2169898900EA01060698FDF7EC
:1045400077FE0643206986811199A17321698889C4
:10455000FFF71CFB052100F03F0001EB9B0140EA47
:10456000013188B2FDF764FE21698881AAEB090157
:104570001FFA81FA01994944019100994944009137
:10458000002F3FF450AFBAF1000F7FF44CAF6E6FC5
:1045900016B9002603E0064630680028FBD1EEB3CA
:1045A00030698089FFF7F2FA800700D00120B189D5
:1045B000401868D030698089FFF7E8FA800762D137
:1045C0000698800702D0069801285CD1B089B98985
:1045D0000844298F884256D8B07BB97B884252D193
:1045E00030694068FFF7D0FAB18900EB010A3869F9
:1045F0004068FFF7C9FA824545D10BF1140BCBF1A6
:1046000000017868FFF72AFC80B195F8220040F09D
:10461000800085F8220027B1384600E033E001F041
:10462000DDFAB5F870004FF0FF30C2E678684189D6
:1046300049B90168796000210160A8F101081FFAF9
:1046400088F8FFF7E3FB0698C00708D00120FDF7C4
:10465000EFFD0146306982891143818109E0796863
:104660007068FFF72DFBB089B9890844B0813868BC
:104670003060BC4202D1B6F80C9034463946042072
:10468000FFF7A0F901E09EB337600698069900F0A5
:10469000020001F00101084303D00598401C80B2DC
:1046A00005900698C00705D095F8220040F020003C
:1046B00085F8220055F8681F059808442860E988A5
:1046C0000598081AE880A5F808807CB1B9F1000FB8
:1046D0000CD0206950B11098800707D40820FDF74E
:1046E000A7FD01462069828911438181002060E68F
:1046F000FFE76F67C9E7C0F89010704770B51548BD
:10470000446923E0E26F7AB1D4F8845025B10023E4
:1047100021466069A84704E000232146184601F0BD
:1047200063F908B90020E06794F82200C1070CD0B3
:1047300040F0020084F82200204600F009FB94F8C3
:10474000220020F0030084F82200E468002CD9D174
:1047500070BD0000740000202DE9FC4705460C46A2
:10476000C94E6868B0600088FFF710FA6968C0F346
:10477000032001EB80007060B0680088FFF706FA44
:10478000C0F30320800041422846FFF767FB10B9C1
:104790002889142804D22846BDE8FC47FFF736BB19
:1047A000B06821461030FEF7F6FA68B94FF0704055
:1047B000FFF7EAF9B168096900EA01044FF06040C7
:1047C000FFF7E2F9844204D12846BDE8FC47FFF731
:1047D0001DBB70688089FFF7D9F9000B800041424A
:1047E0002846FFF73BFB20B12846BDE8FC47FFF712
:1047F0000DBB70680088FFF7C9F901467068018039
:104800004088FFF7C3F90146706841804068FFF7B0
:10481000BBF9014670684160F1608068FFF7B4F948
:10482000716888603061C889FFF7B0F90146706827
:10483000C1818089FFF7AAF900F03F003070298913
:10484000800701D0012000E0002008447080002093
:104850008E4F3B681C46D6E9011221E0B4F820C017
:10486000B1F80080C44519D1B4F818C0B1F802807D
:10487000C44513D1D4F804C0D2F80C80C4450DD17E
:10488000D4F800C0D2F81080C44507D150B1D4F894
:104890000CC0C0F80CC0E3603C6003E02046E46854
:1048A000002CDBD1ECBB7A48046818E0208C0B8824
:1048B000984213D1208B4B8898420FD16068D368FF
:1048C00098420BD120681369984207D1204601F025
:1048D000EFFA2846BDE8FC47FFF798BAE468002CD9
:1048E000E4D10027DFF8AC81D8F8000084461DE051
:1048F00005D003681BB1D2F810904B4514D1038B3F
:10490000B1F802904B450FD12FB1C168F960C0F8E2
:104910000CC0C8F8000000F023F92846BDE8FC47A9
:1049200000E005E0FFF772BA0746C0680028DFD153
:10493000002C79D0584F4FF00008C7F80080288924
:10494000B8816868B8607D603961C6F8148086F8FF
:104950000180E26FB2B1D4F884C0BCF1000F04D082
:10496000002321466069E04704E000232146184601
:1049700001F03AF820B12846BDE8FC47FFF746BAF7
:10498000C4F87C80B461204600F0E0FB401D57D0A5
:10499000707801070FD5D4F890201AB16FF0050197
:1049A000606990472146394800F098FB2146022073
:1049B000FFF708F844E0C00608D52146334800F068
:1049C0008DFB21460220FEF7FDFF39E0B4F86C2094
:1049D0002AB1D4F8803013B12146606998477269D2
:1049E000B2B13078000703D5507B40F0010050731E
:1049F000D4F8845025B1002321466069A84704E01B
:104A000000232146184600F0EFFF08B17069E06707
:104A1000707880060FD5D4F8845035B100231A463B
:104A200021466069A84706E015E000231A462146A2
:104A3000184600F0D9FFC6F81880204600F088F923
:104A4000C6F818807868002803D0FFF7DFF9C7F8A8
:104A50000480BDE8FC878889FFF798F840070ED4EA
:104A6000706801884088CDE90001B3687188F068FA
:104A70001A4601440C331032306901F051F82846CF
:104A8000BDE8FC47FFF7C2B9C00000208800002045
:104A90008C00002084000020C45200207CB5044615
:104AA000002214210120FFF773F80546002D18D0CD
:104AB000A06D401EFDF7B0FB0346002229462046AC
:104AC00000F074FA06200021CDE90010E37A221DDF
:104AD00021462846FEF7F8FA2846BDE87C40FFF755
:104AE00095B97CBDF0B406467F25002400200E4910
:104AF0004A69D1F808C00DE0517CB14209D8A942F9
:104B000007D8136BACEB0303A34202D31C46104639
:104B10000D46D268002AEFD1002803D0F0BC012155
:104B2000FFF7AEBAF0BC70477400002030B4002329
:104B300000200A498A698C6806E0116B611A994263
:104B400001D30B461046D268002AF6D1002803D0C4
:104B500030BC0121FFF794BA30BC704774000020CC
:104B60007CB50546374E3078C10610D5706801888F
:104B70004088CDE900017188F068B36801441A46A5
:104B800030690C331032401C00F0CAFF58E0800737
:104B900056D5687CFFF7C6FA0446ECB3B06810F14E
:104BA000100144D001692160298B218310F10C018F
:104BB0003FD0C0686060716808882084032020743A
:104BC000F0680246401C6062E062C889A4F85C009C
:104BD000A4F85400521E226668696061E869E061C9
:104BE000288940F299110840208117480168E16046
:104BF0000460204600F018FA208F211DFFF7B8FB53
:104C0000208700210120CDE9001012230A4620460A
:104C1000FFF7BEFB054600E006E065B10021204637
:104C2000FFF72EFA28467CBD4FF0FF307CBD0021F7
:104C3000B9E70020BEE72046BDE87C4000F088B818
:104C400000207CBDC00000208800002070B5044614
:104C5000207C08B1002070BD0320FEF7EBFE054666
:104C6000BDB160696861208B288301202874208988
:104C700040F002002881E07AE872A07AA87254B16C
:104C8000206828601349C868A04206D1C068C8607F
:104C900010E0002070BD0020F3E7C86107E0C068A5
:104CA000A04203D1C969E068C86003E0C861C8696F
:104CB0000028F4D10020E06021460220FEF782FEA9
:104CC0000548E861034810300168E960056028463E
:104CD00070BD0000740000201D4100084020FFF757
:104CE00021BA000030B5154B4FF400445A6958887A
:104CF000401C80B25880A04202D34FF480505880AC
:104D00001046598803E0058B8D42F0D0C06800281A
:104D1000F9D1986903E0058B8D42E8D0C06800287E
:104D2000F9D106481030006803E0058B8D42DED0D3
:104D3000C0680028F9D1588830BD000074000020F8
:104D40000249D1E901021044486070477400002014
:104D50002DE9F047054667480068A84202D10020C7
:104D6000BDE8F087B5F85C00B5F85280404500D248
:104D700080466C6F95F8220080070FD54CB12069F2
:104D80004068FEF701FFE96C401AA18908444045DC
:104D900004D92846BDE8F04700F037BFAF6F0FB920
:104DA00003E0074638680028FBD14FF0000978E09F
:104DB00020698089FEF7EAFEA86F78B195F8221085
:104DC00011F0440F0AD1686F28B1026832B98089A6
:104DD0002A8F904202D211F0A00F6ED0206868672F
:104DE000287C02280DD01020FDF722FA0146206908
:104DF00082891143818195F8220020F0030085F813
:104E000022002946204600F077F820694068FEF726
:104E1000BBFE064620698089FEF7B8FE800700D0F9
:104E20000120A18930440844A96D091A00D5A8655C
:104E300020698089FEF7AAFE800700D00120A189A1
:104E400040182AD0C4F80090A86F68B12069406863
:104E5000FEF79AFE064638694068FEF795FE301A5E
:104E600018D505F1780603E0AC67274618E03668E8
:104E7000306858B100694068FEF786FE82462069B6
:104E80004068FEF781FEBAEB0000F0D43068206085
:104E9000346005E03C60274602E0204600F08FFECB
:104EA0006C6F54B120694068FEF76EFEE96C401AE1
:104EB000A189084440457FF67BAF9CB195F89C00E2
:104EC00080B920694068FEF75FFEE96C401AA1894D
:104ED0000844B5F85C10884204D9C5F898900120C0
:104EE00085F89C0015F8220F20F080002870002023
:104EF00036E70000D80000207CB505460C46606A05
:104F0000FDF78AF929698860608DFDF791F92969B3
:104F1000C881618D606A0844E0622E691436A87BFE
:104F2000C00703D01F48FDF777F930600CB1206847
:104F300040B9201DFEF73EFB002831D0011D08D0EE
:104F400040682060B4F936004FF00006401C02D0E3
:104F500002E00020F5E7E686E06B38B91248006809
:104F6000E06328694068FEF70FFE206469682869DD
:104F70004A68801A4A89121A4A8169680A89101A8D
:104F80000881696828694860286906820621A07A34
:104F9000CDE90001E37A221D21466868FEF794F806
:104FA0007CBD0000B40504027C0000202DE9F04126
:104FB000054616461F464C68288BFDF739F92080B8
:104FC000288CFDF735F960806760686AFDF724F981
:104FD000A0604FF6C070FDF72BF9A18900EA010728
:104FE0001020FDF725F90743A781688DFDF720F90B
:104FF000E08100276782A089FEF7C8FDF11706EB64
:105000009171052200F03F0002EBA10140EA01305E
:1050100080B2FDF70DF9A0812782698D686A084486
:10502000E8622046BDE8F08170B505461E4E746802
:10503000204614348089FEF7A9FD0521B1EB103F0D
:105040001CD270688089FEF7A1FD6FF0040101EBAE
:1050500010308004020C002040F2B4530CE0215CBC
:1050600000290BD001290AD002290BD02118497838
:10507000002903D0084480B29042F0D370BD401C98
:1050800080B2F9E721184E78042EF7D1001D904226
:10509000F4D8CE78897846EA0121994200D801B93E
:1050A0001946298780B2E7E7C000002070B50446A2
:1050B000207C002811D00A280FD001280DD0E06FE5
:1050C000002510B1FEF7A2FEE567606F00F086FDD7
:1050D000A06F00F083FD6567A56770BD70B50246DF
:1050E0000C461068A04202D1C06810600DE0134960
:1050F000C86107E0C068A04203D1C969E068C86020
:1051000003E0C861C8690028F4D10025E5602046A5
:10511000FFF7CCFF207C0A280CD001280AD094F895
:105120002200C10706D040F0020084F82200204689
:10513000FFF70EFE207C257470BD00007400002077
:1051400000F1340081654270704700002DE9FC5F7A
:10515000044600200025DFF8049499F800104A075F
:1051600026D5217C02291AD0616AD9F80C20531A5D
:1051700005D4238D1944511A002900DC0120A8B15F
:1051800099F8010040F0080089F8010014F8220F96
:1051900020F0010020706FF00500BDE8FC9FA16DBC
:1051A000D9F810209142EAD10120E8E70020F4E785
:1051B00088070FD5207C02280CD003280AD094F849
:1051C000220040F0020084F822002046FFF7C0FDD4
:1051D0000020E2E7E248006820634FF0000A84F80C
:1051E0009DA02046FFF720FF207CDE4F801EDFF8C9
:1051F00078B3DE4E4FF00A0808285CD2DFE800F0F2
:105200000479DBF2F0DBEFEE99F80000C10657D528
:10521000800755D5A06F00694068FEF7B5FCD9F846
:105220001010401C88424BD1B4F86E00401CA4F80A
:105230006E00D9F80C000246401C6062E062E16436
:10524000D9F80400C089A4F85C00521E226604202C
:105250002074208F211DFFF78BF8208700EB800141
:105260004900A4F85410B4F85210012900D14000AC
:1052700004F150046080208CA0F101002084A06A19
:105280000168A162A4F15004B1B1A4F836A084F879
:105290004AA000F094FCD4F888301BB100222146CB
:1052A0006069984794F8220040F0020084F82200D8
:1052B0002046FFF74DFD4EE14FF0FF31E186E8E774
:1052C00099F80000C006F6D5D9F804000188408896
:1052D000CDE90001D9F80830B9F80210D9F80C006E
:1052E0001A4601440C331032D9F8100000F018FCB3
:1052F00031E199F80000C10651D5E16CD9F81000F0
:10530000A0EB0101491E37D4A16D411A002933DCFD
:1053100004202074E36923B1002221466069984784
:10532000054635B101212046FEF7AAFE6FF00400C4
:1053300033E7B4F85250204600F01AF9B4F86C0084
:1053400010B1401EA4F86C00012D12D0208FA4F8DB
:10535000520099F801008006ADD594F8220040F083
:10536000020084F822002046FFF7F2FC0720207498
:10537000F1E0208F4000EAE7D9F804100A88498854
:10538000CDE90012B9F80220D9F80C10D9F808308C
:1053900011441A460C33103200F0C2FBDBE08007E8
:1053A00008D5606AD9F80C10401E884202D1204608
:1053B00000F04AFBCFE0204600F0DAF899F801004F
:1053C00080060AD594F8220040F0020084F82200FA
:1053D0002046FFF7BDFC07202074BCE0A9E07EE07A
:1053E0004FE0FFE7204600F0C3F899F8010080067F
:1053F0003BD599F80000C0062BD5A06DD9F8101048
:10540000884226D194F8220040F0020084F822005D
:105410002046FFF79DFC2046FFF748FEDBF8000022
:10542000A04203D1C068CBF800000CE0306007E078
:10543000C068A04203D13168E068C86003E0306012
:1054400030680028F4D184F810803868E0603C604F
:1054500081E094F8220040F0020084F82200204607
:10546000FFF776FC0820207475E099F80000C0066C
:1054700071D5A06DD9F8101088426CD10620207427
:1054800069E0204600F074F899F80100800662D5C2
:1054900094F8220040F0020084F822002046FFF732
:1054A00057FC2046FFF702FEDBF80000A04203D1C4
:1054B000C068CBF800000CE0306007E0C068A04294
:1054C00003D13168E068C86003E0306030680028CC
:1054D000F4D184F810803868E0603C603BE02046FE
:1054E00000F046F899F80000C00634D5A06DD9F850
:1054F000101088422FD12046FFF7D8FDDBF80000BE
:10550000A04203D1C068CBF800000CE0306007E097
:10551000C068A04203D13168E068C86003E0306031
:1055200030680028F4D184F810803868E0603C606E
:1055300011E0204600F01CF899F80000C0060AD5DA
:10554000A06DD9F81010884205D199F8010040F0FB
:10555000100089F8010000201FE60000C0000020B4
:105560007C0000208C00002088000020900000209B
:105570002DE9F04704460025FE4F2E463878C00638
:105580007ED5B4F85CC0616E0CEB01083846D4F8E7
:105590006090FA6843680069B9EB020A09D4914542
:1055A00002D1B1EB000904D481420DD1D989614502
:1055B0000AD9D989A4F85C102266606621B194F8F2
:1055C0009C1009B184F89C60E26C811A00292FDCE0
:1055D000A4F86C60798809BBB4F85C30616E19443A
:1055E000414520D1B4F9361000291CDB82421AD182
:1055F000012594F850000146401C884201D984F8E6
:10560000500094F85000032809D9B4F85200218FB3
:10561000014489B2814206D9A4F8521003E002D1B4
:10562000204600F038FA002D01D184F85060A4E043
:105630004A1E7BD4A26D821A002A7CDC94F82220B8
:10564000530707D522F0040204F8222F628E228627
:10565000A4F1220404F13404A675628AB4F910306E
:1056600002EBE302A2822187628F114461872677D1
:10567000A06114F8240CA4F13404042839D300E008
:10568000B7E0B4F85200B4F85410884207D2218F22
:10569000014489B281422CD9A4F8521029E0218F0B
:1056A000494391FBF0F1014489B2884221D2A4F828
:1056B00052101EE02868A0676868FEF71FFBB4F868
:1056C0006C0050B128698089FEF760FAC00704D0E9
:1056D000B4F86C00401EA4F86C006868FEF70EFB7E
:1056E00034F8701F081A2080284600F068FA34F851
:1056F0007009A06FA0B100694068FEF745FA054641
:10570000A06F00698089FEF741FA800700D0012070
:105710002844A56FA98908443969401A0028C9DDC1
:10572000A06F20B1E68684F8346026E003E04FF0F5
:10573000FF30E086F7E7A4F86C601EE02868606739
:105740006868FEF7DBFAB4F86C0050B1286980890C
:10575000FEF71CFAC00704D0B4F86C00401EA4F891
:105760006C006868FEF7CAFA34F8701F081A2080C7
:10577000284600F024FA34F87009606FB8B1006967
:105780004068FEF701FA0546606F00698089FEF700
:10579000FDF9800700D001202844656FA9890144E4
:1057A0003869411A03D4A16D401A0028C6DDE06BA8
:1057B000F8B1216C3A69891A1BD56F490968081A32
:1057C000B4F94410A0EBE10000B201440AB2A4F81D
:1057D0004420002801DA404200B2B4F94610A0EBA0
:1057E000A1000844A4F8460000EBE200A4F8480039
:1057F000E6637B88002B7CD0616AFA68DFF87C81E5
:10580000A1EB0200451E2FD41344CB1A5B1C002BC6
:105810002ADCD8F804506989814210DA2989091AEA
:105820008AB203E0401A2A816E812D68698981421B
:10583000F8DB404201B22846FEF710FB04E040428C
:1058400001B22846FEF70AFB6868C8F80800606ADB
:10585000F968B8F80C20411A511AA8F80C10F86031
:10586000D8F8101048600AE0501A08D594F82200C1
:1058700040F0020084F822002046FFF769FA606ACF
:10588000F9680A1A75D4228D02448A1A521C002A19
:105890006FDC884274D1D8F810008089FEF776F961
:1058A000800700D00120B8F80C10084480B278803E
:1058B000218D81423CD2D8F810008089FEF766F92C
:1058C000C00712D04FF6C070FCF7B2FC0546D8F8FE
:1058D000100080890540FEF759F900F03E00FCF702
:1058E000A7FC0543D8F810008581208DA8F80C008E
:1058F00000E061E0D8F810008089FEF747F98007E2
:1059000004D5B8F80C00401EA8F80C00B8F80C102C
:10591000D8F80400FEF7D9FAD8F810008089FEF70D
:1059200035F9800700D00120B8F80C1008447880C1
:105930007888F96801446162218D081A2085204623
:1059400000F000FBD8F80400018911B17861C8F8B3
:105950000460D8F810008089FEF718F9C00703D05A
:10596000787840F02000787094F82200C10713D0B6
:1059700007E01CE0C00000207C000020C452002092
:1059800010E020F0010040F0020084F822002046E0
:10599000BDE8F047FFF7DCB940F0010084F82200D1
:1059A000BDE8F0872046BDE8F04700F02EB920465C
:1059B000BDE8F04700F029B9606AF9680A1A05D411
:1059C000228D1044081A401C0028E9DD94F82200BA
:1059D00040F0020084F822002046BDE8F047FFF7BF
:1059E000B7B9C0F88410704710B50846144634B1F2
:1059F000218900F00BF82046FEF708FA00E00BB111
:105A0000002010BDBDE81040FEF74CBC10B50446A8
:105A1000208D084480B2208540F66831884200D944
:105A20002185204600F08EFA40F2DA2188420ADB16
:105A300094F8220040F0020084F822002046BDE8DD
:105A40001040FFF785B910BD2DE9F0410546AE6F56
:105A5000002E1ED03068A86705F1740400E02468A9
:105A6000206850B100694068FEF78EF8074630693B
:105A70004068FEF789F8381AF1D420683060266053
:105A800005F13C05A87B00F10100A8734FF0000070
:105A90002860BDE8F08110B50446A06F002827D02B
:105AA00094F82200400723D42046FFF7CDFFB4F836
:105AB0005200B4F85C10884203D94808A4F8540096
:105AC00002E04008A4F85400B4F85410208FB1EB61
:105AD000400F02D24100A4F8541004F1220400EB5C
