:020000040800F2
:10000000880600200D0D0008150D0008170D0008CA
:10001000190D00081B0D00081D0D00080000000050
:100020000000000000000000000000001F0D00089C
:10003000210D000800000000230D0008250D000818
:10004000270D0008270D0008270D0008270D0008C0
:10005000270D0008270D0008270D0008270D0008B0
:10006000270D0008270D0008270D0008270D0008A0
:10007000270D0008270D0008270D0008270D000890
:10008000270D0008270D0008270D0008270D000880
:10009000270D0008270D0008270D0008270D000870
:1000A000270D0008270D0008270D0008270D000860
:1000B000270D0008270D0008270D0008270D000850
:1000C000270D0008270D0008270D0008270D000840
:1000D000270D0008270D0008270D0008270D000830
:1000E000270D0008270D0008270D0008270D000820
:1000F000270D0008270D0008270D0008270D000810
:10010000270D0008270D0008270D0008270D0008FF
:10011000270D0008270D0008270D0008270D0008EF
:10012000270D0008270D0008270D0008270D0008DF
:10013000270D0008270D0008270D0008270D0008CF
:10014000270D0008270D0008270D0008270D0008BF
:10015000270D0008270D0008270D0008270D0008AF
:10016000270D0008270D0008270D0008270D00089F
:10017000270D0008270D0008270D0008270D00088F
:10018000270D0008270D000800F002F800F092F893
:100190000AA090E8000C82448344AAF10107DA45E2
:1001A00001D100F087F8AFF2090EBAE80F0013F0A2
:1001B000010F18BFFB1A43F00103184774550000E4
:1001C00094550000103A24BF78C878C1FAD8520775
:1001D00024BF30C830C144BF04680C6070470000C1
:1001E0000023002400250026103A28BF78C1FBD840
:1001F000520728BF30C148BF0B6070476E2903F01B
:10020000CD87702904F01681662905F022826529C0
:1002100005F01F82672905F01C826129AFF3008079
:1002200003681B0A28BF41F08001692903F07A871F
:10023000642903F07787752903F074876F2904F028
:10024000A180782904F0E280E92904F03980E429CA
:1002500004F03680F52904F03380EF2904F09E8005
:10026000F82904F0E1800368DB0928BF41F0800130
:10027000632904F06C84732904F07184E32904F089
:100280007C84F32904F08184002070471FB505F0B9
:10029000DBF904F0CBFC04000020002105F0BEF9DE
:1002A000401C60600020002105F0A2F9E0601FBD45
:1002B00010B510BD04F08DFC1146FFF7E7FF00F00C
:1002C0007AF804F069FD03B4FFF7F2FF03BC04F011
:1002D000ADFD000000B587B00121402002F02CFCEC
:1002E0000121202002F017FD02208DF808000020D7
:1002F0008DF80A0001208DF80B0000208DF8090010
:100300004FF48040019001A9264801F08BFC08229F
:100310000E21244801F0BDFF4FF4E130039000208E
:10032000ADF81000ADF81200ADF81400ADF81800EB
:100330000820ADF8160003A91B4802F086FF012132
:10034000194803F0CBF807B000BD10B500220EE04D
:10035000835C03B90DE000BF134B1B8813F0800FC3
:10036000FAD0835C104C241D2380521C491E0029A6
:10037000EED100BF10BD0FB400B5A3B000208DF8C2
:10038000840025A8229001A8229A249903F050FE07
:1003900000202290402101A8FFF7D7FF23B05DF88D
:1003A00014FB0000001802400014014006A0FFF7F3
:1003B000E2FF00BFFEE7FFF78DFF05A0FFF7DBFFC1
:1003C00000F0E3FA00BFFEE76661696C0000000020
:1003D00068656C6C6F2077622D4634210A0D000031
:1003E0001CB50121582002F0A7FB0C220021FE4879
:1003F00001F04FFF0C220121FB4801F04AFF0C22C3
:100400000421F94801F045FF0C220521F64801F0CE
:1004100040FF0C220721F44801F03BFF0C220B2186
:10042000F14801F036FF0C221146EF4801F031FF90
:100430000C220E21EC4801F02CFF0C220F21EA487F
:1004400001F027FF0C220721E84801F022FF0C22CF
:100450000821E64801F01DFF0C220921E34801F0C4
:1004600018FF0C220A21E14801F013FF0C2206219B
:10047000DF4801F00EFF0C220921DD4801F009FFE1
:100480000C220A21DA4801F004FF02208DF8040052
:1004900003208DF8050000208DF806008DF8070078
:1004A0004DF6B36000906946CF4801F0BBFB4FF4B6
:1004B000F06000906946CD4801F0B4FB01208DF852
:1004C00007004FF4C86000906946C94801F0AAFBD4
:1004D0001CBD00B58DB0FFF783FF0121084602F077
:1004E0007DFB01200090032001900220029001205A
:1004F00003901020049000200590069007904FF480
:10050000C0200890002009900A90CDF82CD0CDF89A
:1005100030D004A800F099FE0121102000F0AFFFB8
:100520000DB000BD9021B34A11700021B24A117084
:100530004FF0E041097801704FF0E04109784170D7
:100540004FF0E041097881704FF0E0410978C170C7
:100550004FF0E04109780171704701464FF4807017
:100560008A88521C8A808A88402A11D100228A8077
:100570004A88521C4A804A88B2F5806F08D100220E
:100580004A800A88521C0A800A88022A00D1400048
:100590007047002100207022964B1A7012061178C5
:1005A00001F00102012A01D1012006E001F0400220
:1005B000402A01D1402000E00020704730B54FF0C4
:1005C00080744025FFF7E5FF054603E0FFF7E1FFF4
:1005D0000546641E402D01D0002CF7D10CB94FF414
:1005E0008065284630BD2DE9FF4707461C4600259B
:1005F000A8464FF480794026AA464EE080207D49E7
:10060000087000207C4908700870BDF80610BDF81D
:10061000040001EB8020BDF8081001EB8010764942
:100620000870BDF80610BDF8040001EB8020BDF88D
:10063000081001EB8010000A6F490870BDF8061021
:10064000BDF8040001EB8020BDF8081001EB80101C
:10065000000C694908704FEAC82000F5006A04E000
:10066000785D4FF0E04108706D1C5545F8D31020BF
:100670006049087000BF40215D4801F0BDFB0028C3
:10068000F9D0FFF79BFF0646402E06D108F101087E
:10069000641E01A8FFF761FF814624B1B9F5807F90
:1006A00001D1402EAAD046EA090004B0BDE8F08787
:1006B0002DE9FF4706461C46002500274FF48078A9
:1006C0004FF04009AA4646E000204A4908704A49CE
:1006D00008700870BDF80610BDF8040001EB80201A
:1006E000BDF8081001EB801043490870BDF80610F2
:1006F000BDF8040001EB8020BDF8081001EB80106C
:10070000000A3D490870BDF80610BDF8040001EB71
:100710008020BDF8081001EB8010000C36490870ED
:1007200030203449087000BF4021314801F064FB9B
:100730000028F9D0F80200F5006A04E04FF0E0402C
:10074000007870556D1C5545F8D37F1C641E01A8B8
:10075000FFF703FF804614B1B8F5807FB4D0FFF7F0
:100760002DFF814649EA080004B0BDE8F0872DE975
:10077000FF4707461C460025A8464FF480794026CF
:10078000AA465BE080201B49087000201A490870C7
:1007900008200870BDF80610BDF8040001EB8020A9
:1007A000BDF8081001EB801013490870BDF8061061
:1007B000BDF8040001EB8020BDF8081001EB8010AB
:1007C000000A0D490870BDF80610BDF8040001EBE1
:1007D0008020BDF8081001EB8010000C064908705D
:1007E0004FEA88100AE00000000C024000100240AE
:1007F00000180240000001700000027000F1400A81
:1008000004E0785D4FF0E04108706D1C5545F8D369
:1008100010209749087000BF4021964801F0ECFA7B
:100820000028F9D0FFF7CAFE0646402E06D108F18F
:100830000108641E01A8FFF790FE814624B1B9F5B6
:10084000807F01D1402E9DD046EA090004B0BDE86A
:10085000F0872DE9FF4706461C46002700254FF488
:1008600080784FF04009AA4647E000208049087090
:100870008149087008200870BDF80610BDF8040012
:1008800001EB8020BDF8081001EB80107A49087058
:10089000BDF80610BDF8040001EB8020BDF808107B
:1008A00001EB8010000A74490870BDF80610BDF80D
:1008B000040001EB8020BDF8081001EB8010000C53
:1008C0006D49087030206A49087000BF40216948AE
:1008D00001F092FA0028F9D0B80100F1400A04E0D2
:1008E0004FF0E040007870556D1C5545F8D37F1CE3
:1008F000641E01A8FFF731FE804614B1B8F5807F71
:10090000B3D0FFF75BFE814649EA080004B0BDE8BA
:10091000F08713B5602056490870BDF80210BDF885
:10092000000001EB8020BDF8041001EB801052495B
:100930000870BDF80210BDF8000001EB8020BDF882
:10094000041001EB8010000A4B490870BDF802103A
:10095000BDF8000001EB8020BDF8041001EB801011
:10096000000C45490870D0204149087000BF402163
:10097000404801F041FA0028F9D0FFF71FFE1CBDE6
:10098000FF203B490870402070471CB5FFF7A1FDD0
:100990006846FFF7C7FD9DF801209DF8001037A0BD
:1009A000FFF7E9FC9DF80000EC280FD19DF801004D
:1009B000F1280BD19DF80200802807D19DF8030093
:1009C000152803D134A0FFF7D6FC50E09DF80000B5
:1009D000EC280ED19DF80100F1280AD19DF8020003
:1009E00038B99DF80300952803D130A0FFF7C3FC68
:1009F0003DE09DF80000AD280FD19DF80100F128E1
:100A00000BD19DF80200802807D19DF803001D2816
:100A100003D12BA0FFF7AFFC29E09DF80000EC28E4
:100A20000FD19DF80100DA280BD19DF802001028A3
:100A300007D19DF80300952803D127A0FFF79BFC61
:100A400015E09DF80000EC280ED19DF80100AA28C1
:100A50000AD19DF8020038B99DF80300152803D18A
:100A600022A0FFF788FC02E025A0FFF784FC1CBD54
:100A70000000017000180240000002704E616E64B8
:100A800020466C617368204944203D20253032584F
:100A90002C253032580A0D0054797065203D204BCA
:100AA0003946314730385530410D0A005479706568
:100AB000203D204B3946314730385530420D0A0031
:100AC00054797065203D20485932375546303831C9
:100AD0004732410D0A00000054797065203D204BDB
:100AE0003946324730385530410D0A005479706527
:100AF000203D204B3946324730385230410D0A00F4
:100B000054797065203D20556E6B6E6F770D0A002D
:100B100000210020724A126842F48032704B1A6041
:100B200000BF6F4A126802F40030491C10B9B1F5D9
:100B3000A06FF6D16A4A126812F4003F01D001207A
:100B400000E00020012845D1654A4032126842F099
:100B50008052634B40331A60624A126842F480420A
:100B6000604B1A605E4A083212685D4B08331A60A7
:100B70001A46126842F400421A601A46126842F499
:100B8000A0521A60584A1B1F1A601A1F126842F0BE
:100B900080721B1F1A6000BF514A126812F0007F5A
:100BA000FAD040F20562514B1A604D4A0832126881
:100BB00022F003024A4B08331A601A46126842F0C8
:100BC00002021A6000BF464A0832126802F00C02A4
:100BD000082AF8D1704710B54548006840F4700005
:100BE000434908603E48006840F001003C49086005
:100BF00000203B4908310860394800683D490840F9
:100C0000374908603C48091D0860081F006820F447
:100C10008020091F0860002031490C310860FFF76F
:100C200077FF4FF0006032498039086010BD30B561
:100C300000200022022384460221294C0834246823
:100C400004F00C0020B1042806D0082836D107E0B3
:100C50002A4C2B4D2C6035E02A4C294D2C6031E07C
:100C60001F4C241D2468C4F3805C1D4C241D246883
:100C700004F03F01BCF1000F0AD0224CB4FBF1F4A8
:100C8000174D2D1D2D68C5F3881504FB05F209E0ED
:100C90001A4CB4FBF1F4124D2D1D2D68C5F38815C7
:100CA00004FB05F20E4C241D2468C4F30144641CAB
:100CB0006300B2FBF3F4124D2C6003E00F4C104DB7
:100CC0002C6000BF00BF064C08342468C4F3031432
:100CD0000D4D285D0A4C2468C440094D2C6030BD80
:100CE000003802400070004019544007003C0240A8
:100CF00088ED00E0FFFFF6FE103000240024F40031
:100D00000000002040787D01040000200948804751
:100D100009480047FEE7FEE7FEE7FEE7FEE7FEE7DD
:100D2000FEE7FEE7FEE7FEE704480549054A064BF5
:100D300070470000D70B00088901000888000020D8
:100D400088060020880200208802002010B5044692
:100D50002CB1022C03D0042C01D0062C00D103E0CE
:100D60007721FBA0FFF722FB34B943F2DB004FF001
:100D7000204141F8240005E043F2D2004FF0204129
:100D800041F824006FF07041601C4FF0204242F89F
:100D900020100846114601EB8401C1F8040110BD82
:100DA00010B50446206840B12068022805D02068AC
:100DB000042802D02068062800D103E09221E4A094
:100DC000FFF7F4FA606810B16068022800D103E010
:100DD0009321DFA0FFF7EAFAA06828B1A0680428F1
:100DE00002D0A068082800D103E09421D8A0FFF722
:100DF000DDFAE06810B1E068102800D103E0952129
:100E0000D3A0FFF7D3FA206918B12069B0F5807F2D
:100E100000D103E09621CEA0FFF7C8FA606918B1AF
:100E20006069B0F5004F00D103E09721C8A0FFF73B
:100E3000BDFAA06918B1A069B0F5007F00D103E048
:100E40009821C3A0FFF7B2FAE06918B1E069B0F5E4
:100E5000806F00D103E09921BDA0FFF7A7FA206AB7
:100E600018B1206AB0F5006F00D103E09A21B8A054
:100E7000FFF79CFA606A18B1606AB0F5805F00D134
:100E800003E09B21B2A0FFF791FAA06A18B1A06A13
:100E9000B0F5005F00D103E09C21ADA0FFF786FA1A
:100EA000E06A18B1E06AB0F5804F00D103E09D21FF
:100EB000A7A0FFF77BFA206B18B1206BB0F5002FCD
:100EC00000D103E09E21A2A0FFF770FA606B0068DA
:100ED0000F2800D803E09F219DA0FFF767FA606B01
:100EE00040680F2800D803E0A02199A0FFF75EFA20
:100EF000606B806820B1606B8068FF2800D803E0D9
:100F0000A12193A0FFF752FA606BC0680F2800D8A8
:100F100003E0A2218EA0FFF749FA606B00690F2859
:100F200000D803E0A3218AA0FFF740FA606B406974
:100F30000F2800D803E0A42185A0FFF737FA606BE3
:100F4000806970B1606B8069B0F1805F09D0606BBF
:100F50008069B0F1005F04D0606B8069B0F1405FE0
:100F600000D103E0A5217AA0FFF720FAD4E901011E
:100F70000843E16808432169084361690843A1699E
:100F80000843E1690843216A0843616A0843A16A8A
:100F90000843E16A0843216B08434FF0204221686F
:100FA00042F82100A068082808D11146206851F8AD
:100FB000200040F04000216842F82100606B00688A
:100FC000616B496840EA0110616B896840EA012061
:100FD000616BC96840EA0140616B096940EA0150F0
:100FE000616B496940EA0160616B89690843216866
:100FF000491C4FF0204242F82100E06AB0F5804FD2
:1010000063D1A06B00680F2800D803E0C72150A06F
:10101000FFF7CCF9A06B40680F2800D803E0C82187
:101020004BA0FFF7C3F9A06B806820B1A06B80686C
:10103000FF2800D803E0C92145A0FFF7B7F9A06B4E
:1010400000690F2800D803E0CA2141A0FFF7AEF9DC
:10105000A06B40690F2800D803E0CB213CA0FFF72C
:10106000A5F9A06B806970B1A06B8069B0F1805F59
:1010700009D0A06B8069B0F1005F04D0A06B8069DB
:10108000B0F1405F00D103E0CC2131A0FFF78EF931
:10109000A06B0068A16B496840EA0110A16B8968E8
:1010A00040EA0120A16B096940EA0150A16B49693E
:1010B00040EA0160A16B896908434FF02042216832
:1010C00002EB8101C1F8040108E06FF070404FF0BD
:1010D0002042216802EB8101C1F8040110BD00210A
:1010E00001600221416000218160C16001614161B4
:1010F0008161C16101624FF48051416249008162A6
:101100000021C16201630F21426B1160426B51608B
:10111000FF21426B91600F21426BD160426B1161E4
:10112000426B51610021426B91610F21826B116012
:10113000826B5160FF21826B91600F21826BD160C5
:10114000826B1161826B51610021826B91617047EA
:101150004C69627261726965735C53544D333246F7
:101160003478785F5374645065726970685F447254
:10117000697665725C7372635C73746D3332663466
:1011800078785F66736D632E6300000070B5044667
:101190000D462CB1022C03D0042C01D0062C00D11A
:1011A00005E04FF48771AFF25800FFF7FFF80DB17B
:1011B000012D00D105E040F20F11AFF26C00FFF7F6
:1011C000F5F855B14FF0204050F8240040F00100F0
:1011D0004FF0204141F8240009E04FF0204050F842
:1011E0002400FA4908404FF0204141F8240070BD26
:1011F00010B50446102C02D0B4F5807F00D105E074
:101200004FF4AB71AFF2B800FFF7D0F8102C0AD151
:1012100018204FF020410866402048664FF0FC300F
:101220008866C86610E01820E94908604FF0400061
:101230004FF02041C1F884004FF0FC30E5490860D0
:101240004FF02041C1F88C0010BD2DE9F04104465B
:101250000025002600272068102803D02068B0F55C
:10126000807F00D105E040F27711AFF21C10FFF74C
:101270009DF8606810B16068022800D105E04FF465
:10128000BC71AFF23410FFF791F8A06810B1A068FC
:10129000102800D105E040F27911AFF24C10FFF7B1
:1012A00085F8E06810B1E068402800D105E04FF40F
:1012B000BD71AFF26410FFF779F8206998B1206929
:1012C000B0F5003F0FD02069B0F5802F0BD020691A
:1012D000B0F5C02F07D02069B0F5002F03D02069EA
:1012E000B0F5202F00D105E040F27B11AFF2A01045
:1012F000FFF75CF86069FF2800D805E04FF4BE7185
:10130000AFF2B410FFF752F8A069FF2800D805E04B
:1013100040F27D11AFF2C810FFF748F8E0690068AD
:10132000FF2800D805E04FF4BF71AFF2DC10FFF7E3
:101330003DF8E0694068FF2800D805E040F27F11E1
:10134000AFF2F410FFF732F8E0698068FF2800D8A8
:1013500005E04FF4C071AFF20820FFF727F8E0690D
:10136000C068FF2800D805E040F28111AFF22020CC
:10137000FFF71CF8206A0068FF2800D805E04FF44A
:10138000C171AFF23420FFF711F8206A4068FF28DE
:1013900000D805E040F28311AFF24C20FFF706F8C9
:1013A000206A8068FF2800D805E04FF4C271AFF2D0
:1013B0006020FEF7FBFF206AC068FF2800D805E028
:1013C00040F28511AFF27820FEF7F0FF606840F040
:1013D0000800A1680843E16808432169084361697E
:1013E00040EA4120A16940EA4135E0690068E169CD
:1013F000496840EA0120E169896840EA0140E16901
:10140000C96840EA0166206A0068216A496840EAC2
:101410000120216A896840EA0140216AC96840EADE
:1014200001672068102805D14FF0204005668666C8
:10143000C76607E0664805604FF02040C0F8886046
:1014400065480760BDE8F08110210160002141601E
:101450008160C160016141618161FC21C2691160EB
:10146000C2695160C2699160C269D160026A11604B
:10147000026A5160026A9160026AD160704770B579
:1014800004460D46102C02D0B4F5807F00D105E053
:101490004FF4E971AFF24830FEF788FF0DB1012D2E
:1014A00000D105E040F2D311AFF25C30FEF77EFFD1
:1014B0009DB1102C08D14FF02040006E40F0040088
:1014C0004FF0204108661DE04148006840F00400EC
:1014D0004FF02041C1F8800014E0102C09D14FF0EA
:1014E0002040006E3949C91E08404FF0204108666F
:1014F00008E037480068394900EA01004FF0204110
:10150000C1F8800070BD70B504460D46102C02D0A5
:10151000B4F5807F00D105E04FF4FD71AFF2D0301B
:10152000FEF744FF0DB1012D00D105E040F2FB11A3
:10153000AFF2E430FEF73AFF9DB1102C08D14FF026
:101540002040006E40F040004FF0204108661DE052
:101550001F48006840F040004FF02041C1F8800073
:1015600014E0102C09D14FF02040006E1B493C398B
:1015700008404FF02041086608E015480068184907
:1015800000EA01004FF02041C1F8800070BD014623
:101590000020102903D14FF02042506F01E0114A82
:1015A000106870471820104908604FF000004FF095
:1015B0002041C1F8A4004FF0FC300C49086001F153
:1015C0000401086001F1040108607047FEFF0F008C
:1015D000800000A0880000A08C0000A0FBFF0F008E
:1015E000BFFF0F00940000A0A00000A0A80000A072
:1015F00010B50446206810B12068022800D105E02B
:1016000040F27321AFF2B840FEF7D0FE6068FF28C9
:1016100000D805E04FF41D71AFF2CC40FEF7C6FED6
:10162000A068FF2800D805E040F27521AFF2E04045
:10163000FEF7BCFEE0680068FF2800D805E040F235
:101640007721AFF2F440FEF7B1FEE0684068FF2872
:1016500000D805E04FF41E71AFF20C50FEF7A6FE65
:10166000E0688068FF2800D805E040F27921AFF2F9
:101670002050FEF79BFEE068C068FF2800D805E018
:1016800040F27A21AFF23850FEF790FE20690068F0
:10169000FF2800D805E04FF41F71AFF24C50FEF761
:1016A00085FE20694068FF2800D805E040F27D21D2
:1016B000AFF26450FEF77AFE20698068FF2800D8F8
:1016C00005E040F27E21AFF27850FEF76FFE206910
:1016D000C068FF2800D805E040F27F21AFF29050AB
:1016E000FEF764FE60690068FF2800D805E04FF44B
:1016F0002071AFF2A450FEF759FE60694068FF28E0
:1017000000D805E040F28121AFF2BC50FEF74EFE5A
:1017100060698068FF2800D805E040F28221AFF2BE
:10172000D050FEF743FE6069C068FF2800D805E08E
:1017300040F28321AFF2E850FEF738FE206840F017
:101740001000616840EA4120A16840EA4130E84960
:101750000860E0680068E168496840EA0120E168E3
:10176000896840EA0140E168C96840EA0160E149EE
:101770000860206900682169496840EA0120216900
:10178000896840EA01402169C96840EA0160DA4994
:101790000860606900686169496840EA0120616920
:1017A000896840EA01406169C96840EA01604FF018
:1017B0002041C1F8B00010BD00210160416081608E
:1017C000FC21C2681160C2685160C2689160C26841
:1017D000D160026911600269516002699160026919
:1017E000D160426911604269516042699160426909
:1017F000D160704710B504460CB1012C00D105E052
:101800004FF43071AFF2B860FEF7D0FD44B1B84884
:10181000006840F004004FF02041C1F8A00008E04B
:10182000B3480068B54900EA01004FF02041C1F813
:10183000A00010BD70B505460C461646102D05D00B
:10184000B5F5807F02D0B5F5805F00D105E040F2AC
:10185000EF21AFF20470FEF7A9FD34F0380001D19A
:1018600004B105E04FF43C71AFF21C70FEF79EFD31
:101870000EB1012E00D105E040F2F121AFF230703F
:10188000FEF794FDF6B1102D07D14FF02040406EC9
:1018900020434FF02041486632E0B5F5807F08D103
:1018A0009748006840EA04004FF02041C1F88400E6
:1018B00026E09448006840EA04004FF02041C1F857
:1018C000A4001DE0102D07D14FF02040406EA04332
:1018D0004FF02041486613E0B5F5807F08D1884875
:1018E000006820EA04004FF02041C1F8840007E0BE
:1018F0008448006820EA04004FF02041C1F8A400A9
:1019000070BD2DE9F04104460D4600270026102C3D
:1019100005D0B4F5807F02D0B4F5805F00D105E03A
:1019200040F22F31AFF2D870FEF740FD012D05D007
:10193000022D03D0042D01D0402D00D105E04FF43D
:101940004C71AFF2F470FEF731FD102C03D14FF063
:101950002040466E07E0B4F5807F02D168480668F3
:1019600001E0684806682E4201D0012700E0002708
:101970003846BDE8F08170B504460D46102C05D000
:10198000B4F5807F02D0B4F5805F00D105E040F26D
:101990005E31AFF64400FEF709FD35F0070001D1D6
:1019A00005B105E040F25F31AFF65C00FEF7FEFCEA
:1019B000102C07D14FF02040406EA8434FF020413B
:1019C000486613E0B4F5807F08D14D48006820EAEE
:1019D00005004FF02041C1F8840007E04948006845
:1019E00020EA05004FF02041C1F8A40070BD2DE9A8
:1019F000F04704460D464FF0000900260027B04688
:101A0000102C05D0B4F5807F02D0B4F5805F00D1F2
:101A100005E04FF46171AFF6C800FEF7C7FC082D72
:101A200003D0102D01D0202D00D105E040F28531EA
:101A3000AFF6E400FEF7BAFC102C03D14FF02040C3
:101A4000466E07E0B4F5807F02D12D48066801E0BC
:101A50002C48066806EA050706EAD5082FB1B8F152
:101A6000000F02D04FF0010901E04FF00009484695
:101A7000BDE8F08770B504460D46102C05D0B4F5CE
:101A8000807F02D0B4F5805F00D105E04FF46D7126
:101A9000AFF64410FEF78AFC35F0380001D105B1ED
:101AA00005E040F2B531AFF65810FEF77FFC102C80
:101AB00008D14FF02040406E20EAD5004FF0204181
:101AC000486613E0B4F5807F08D10D48006820EA2D
:101AD000D5004FF02041C1F8840007E009480068B4
:101AE00020EAD5004FF02041C1F8A40070BD0000ED
:101AF000A00000A0A80000A0AC0000A0FBFF0F0009
:101B0000840000A0A40000A010B50446F748844259
:101B100017D0F748844214D0F648844211D0F648D2
:101B200084420ED0F54884420BD0F548844208D058
:101B3000F448844205D0F448844202D0F3488442F9
:101B400000D103E07B21F2A0FEF730FCE74884429D
:101B500008D10121084601F007F90021012001F018
:101B600003F95EE0E248844208D10121022001F03D
:101B7000FBF80021022001F0F7F852E0DD48844232
:101B800008D10121042001F0EFF80021042001F028
:101B9000EBF846E0D848844208D10121082001F042
:101BA000E3F80021082001F0DFF83AE0D34884424E
:101BB00008D10121102001F0D7F80021102001F0F8
:101BC000D3F82EE0CE48844208D10121202001F034
:101BD000CBF80021202001F0C7F822E0C948844258
:101BE00008D10121402001F0BFF80021402001F080
:101BF000BBF816E0C448844208D10121802001F0DE
:101C0000B3F80021802001F0AFF80AE0BF48844219
:101C100007D10121801501F0A7F80021A01501F0DE
:101C2000A3F810BD2DE9F04104460D46002600271B
:101C3000B046AE48844217D0AD48844214D0AD4877
:101C4000844211D0AC4884420ED0AC4884420BD0C0
:101C5000AB48844208D0AB48844205D0AA488442AD
:101C600002D0AA48844200D103E0BB21A8A0FEF71D
:101C70009DFB002010B9286800B103E0BC21A4A09E
:101C8000FEF794FB287940B12879012805D02879FE
:101C9000022802D02879032800D103E0BD219CA0AE
:101CA000FEF784FBE87928B1E879012802D0E879C9
:101CB000022800D103E0BE2195A0FEF777FB0026A5
:101CC00057E0012000FA06F7286800EA0708B8453F
:101CD0004ED120687200032191408843206028790A
:101CE000710088402168084320602879012802D0CB
:101CF0002879022830D1687940B16879012805D067
:101D00006879022802D06879032800D103E0D02145
:101D10007FA0FEF74BFBA06872000321914088432F
:101D2000A060687971008840A1680843A060A87924
:101D300010B1A879012800D103E0D72174A0FEF7E3
:101D400035FB60680121B140884360606068A97913
:101D5000B14089B208436060E0687200032191409D
:101D60008843E060E87971008840E1680843E060FA
:101D7000761C102EA5D3BDE8F0814FF6FF710160EF
:101D80000021017141718171C171704770B50446C4
:101D90000D464FF480365548844217D0544884424B
:101DA00014D05448844211D0534884420ED0534832
:101DB00084420BD05248844208D05248844205D015
:101DC0005148844202D05148844200D104E04FF48B
:101DD00082714FA0FEF7EAFA002008B905B104E0CD
:101DE00040F205114AA0FEF7E1FA2E43E661E561F3
:101DF000E661E669E66970BD70B505460C460026E9
:101E00003A48854217D03A48854214D0394885422D
:101E100011D0394885420ED0384885420BD0384819
:101E2000854208D03748854205D03748854202D0E0
:101E30003648854200D104E04FF4987134A0FEF793
:101E4000B5FA012C25D0022C23D0042C21D0082C4B
:101E50001FD0102C1DD0202C1BD0402C19D0802C32
:101E600017D0B4F5807F14D0B4F5007F11D0B4F54D
:101E7000806F0ED0B4F5006F0BD0B4F5805F08D042
:101E8000B4F5005F05D0B4F5804F02D0B4F5004F33
:101E900000D104E040F231111DA0FEF787FA286955
:101EA000204201D0012600E00026304670BD10B56A
:101EB00004460E48844217D00D48844214D00D4881
:101EC000844211D00C4884420ED00C4884420BD07E
:101ED0000B48844208D00B48844205D00A4884420B
:101EE00002D00A48844231D136E0000000000240AE
:101EF0000004024000080240000C024000100240B2
:101F00000014024000180240001C02400020024061
:101F10004C69627261726965735C53544D33324629
:101F20003478785F5374645065726970685F447286
:101F3000697665725C7372635C73746D3332663498
:101F400078785F6770696F2E630000004FF4A371AB
:101F5000AFF24400FEF72AFA206980B210BD70B5D6
:101F600005460C460026FE48854217D0FD488542AE
:101F700014D0FD48854211D0FC4885420ED0FC4863
:101F800085420BD0FB48854208D0FB48854205D0EE
:101F9000FA48854202D0FA48854200D105E040F275
:101FA0005711AFF29400FEF701FA012C25D0022C54
:101FB00023D0042C21D0082C1FD0102C1DD0202C75
:101FC0001BD0402C19D0802C17D0B4F5807F14D0B2
:101FD000B4F5007F11D0B4F5806F0ED0B4F5006F6A
:101FE0000BD0B4F5805F08D0B4F5005F05D0B4F530
:101FF000804F02D0B4F5004F00D105E04FF4AC7132
:10200000AFF2F400FEF7D2F96869204201D0012650
:1020100000E00026304670BD10B50446D04884422A
:1020200017D0D048844214D0CF48844211D0CF4832
:1020300084420ED0CE4884420BD0CE48844208D091
:10204000CD48844205D0CD48844202D0CC48844259
:1020500000D105E040F26D11AFF24C10FEF7A6F989
:10206000606980B210BD70B504460D46BC4884421C
:1020700017D0BC48844214D0BB48844211D0BB481E
:1020800084420ED0BA4884420BD0BA48844208D069
:10209000B948844205D0B948844202D0B848844245
:1020A00000D105E040F27F11AFF29C10FEF77EF9FF
:1020B000002008B905B105E04FF4C071AFF2B010CF
:1020C000FEF774F9258370BD70B504460D46A4482B
:1020D000844217D0A348844214D0A348844211D02C
:1020E000A24884420ED0A24884420BD0A148844228
:1020F00008D0A148844205D0A048844202D0A0481C
:10210000844200D105E04FF4C971AFF2FC10FEF734
:102110004DF9002008B905B105E040F29311AFF286
:102120001020FEF743F9658370BD70B505460C4677
:1021300016468B48854217D08A48854214D08A4873
:10214000854211D0894885420ED0894885420BD0FE
:102150008848854208D08848854205D0874885420E
:1021600002D08748854200D105E04FF4D371AFF229
:102170006020FEF71BF9012C25D0022C23D0042C63
:1021800021D0082C1FD0102C1DD0202C1BD0402C6F
:1021900019D0802C17D0B4F5807F14D0B4F5007F0F
:1021A00011D0B4F5806F0ED0B4F5006F0BD0B4F53C
:1021B000805F08D0B4F5005F05D0B4F5804F02D041
:1021C000B4F5004F00D105E040F2A711AFF2C020F6
:1021D000FEF7ECF80EB1012E00D105E04FF4D471FA
:1021E000AFF2D420FEF7E2F80EB12C8300E06C834E
:1021F00070BD70B504460D465948844217D0594801
:10220000844214D05848844211D0584884420ED099
:10221000574884420BD05748844208D056488442DD
:1022200005D05648844202D05548844200D105E08A
:1022300040F2BD11AFF22830FEF7B8F8656170BD0D
:1022400070B504460D464648844217D0454884423E
:1022500014D04548844211D0444884420ED04448AA
:1022600084420BD04348844208D04348844205D07E
:102270004248844202D04248844200D105E040F204
:10228000CB11AFF27430FEF791F86069684060617D
:1022900070BD2DE9F04106460D4614460027B846AC
:1022A0002F48864217D02F48864214D02E488642A7
:1022B00011D02E4886420ED02D4886420BD02D4894
:1022C000864208D02C48864205D02C48864202D04F
:1022D0002B48864200D105E040F21721AFF2D03002
:1022E000FEF764F8EDB1012D1BD0022D19D0032D9E
:1022F00017D0042D15D0052D13D0062D11D0072D84
:102300000FD0082D0DD0092D0BD00A2D09D00B2D83
:1023100007D00C2D05D00D2D03D00E2D01D00F2D83
:1023200000D105E04FF40671AFF21C40FEF73EF815
:1023300044B3092C45D02CB324B31CB314B3012CE3
:102340003FD03ED0022C3CD03BD03AD0032C38D0EA
:10235000042C36D035D034D0052C32D031D012E018
:10236000000002400004024000080240000C02404D
:10237000001002400014024000180240001C0240FD
:10238000002002401DE0092C1BD0062C19D0092C7E
:1023900017D0072C15D014D013D0082C11D010D082
:1023A0000FD0092C0DD00CD00A2C0AD009D00B2C40
:1023B00007D00C2C05D004D003D00D2C01D00F2C4D
:1023C00000D105E040F21921AFF2BC40FDF7EEFF6D
:1023D0006807C00E04FA00F7E91006F1200050F873
:1023E00021006907CA0E0F2191408843EA1006F1C7
:1023F000200141F82200E91006F1200050F82100E8
:1024000040EA0708E91006F1200040F82180BDE805
:10241000F0810000F648006840F00100F4490860CF
:102420000020F34908310860F1480068F14908408C
:10243000EF490860F048091D0860081F006820F493
:102440008020091F08600020E9490C3108607047AE
:1024500010B504461CB1012C01D0052C00D103E0BD
:10246000F021E6A0FDF7A2FF0020E149891C0870D9
:102470000846047010BD2DE9F041044600250026F1
:102480000027212C17D0312C15D0392C13D0412CFA
:1024900011D0612C0FD0792C0DD07A2C0BD07B2C45
:1024A00009D07C2C07D07D2C05D07E2C03D07F2C2E
:1024B00001D03B2C00D104E040F29C61CFA0FDF79D
:1024C00075FF6511012D02D1C948066808E0022D8B
:1024D00003D1C7487030066802E0C548743006680A
:1024E00004F01F050120A840304201D0012700E080
:1024F00000273846BDE8F08170B50024002600258D
:1025000000BF3120FFF7B7FF0546641CB4F5A06F8C
:1025100001D0002DF5D03120FFF7ADFF08B1012625
:1025200000E00026304670BD70B5054600241F2D22
:1025300000DC04E04FF49471B0A0FDF737FFAC4825
:10254000046824F0F80444EAC504046070BD10B5C2
:1025500004460CB1012C00D104E040F24B11A7A0BD
:10256000FDF724FFB448046010BD10B504461CB14B
:10257000012C01D0042C00D104E04FF4B2719FA0D3
:10258000FDF714FF00209A49703108700870012C83
:1025900002D0042C0AD104E0012095497031087062
:1025A00005E0052092497031087000E000BF00BFCF
:1025B00010BD10B504460CB1012C00D104E04FF45D
:1025C000C6718EA0FDF7F2FE9C48046010BD2DE997
:1025D000F0410546884616461C46069F15B1B5F5DE
:1025E000800F00D104E040F2B71184A0FDF7DEFEB9
:1025F000B8F13F0F00D804E04FF4DC717FA0FDF785
:10260000D5FEC02E03D3B6F5D87F00D804E040F243
:10261000B9117AA0FDF7CAFE022C05D0042C03D014
:10262000062C01D0082C00D104E04FF4DD7173A01A
:10263000FDF7BCFE042F02D30F2F00D804E040F2B8
:10264000BB116EA0FDF7B2FE48EA86100121C1EB76
:10265000540140EA0140284340EA07606449091DEB
:102660000860BDE8F08110B504460CB1012C00D122
:1026700004E04FF4E77161A0FDF798FE6E48046630
:1026800010BD70B504460D46C02C03D3B4F5D87FF9
:1026900000D804E04FF4F47158A0FDF787FE022D36
:1026A00002D3072D00D804E040F2E91153A0FDF752
:1026B0007DFEA00140EA05704D498431086070BD7F
:1026C00010B504460CB1012C00D104E040F2F71122
:1026D0004AA0FDF76BFE5848846610BD10B504464D
:1026E0000CB1012C00D104E040F2092143A0FDF718
:1026F0005DFE5148C46410BD70B505460C46002609
:1027000045B1B5F5001F05D0B5F5800F02D0B5F580
:10271000C00F00D104E04FF4097138A0FDF746FE68
:102720005CB1B4F1806F08D0B4F1A06F05D0B4F102
:10273000C06F02D0B4F1E06F00D104E040F2252177
:102740002EA0FDF733FE2A480830066826F0EC6616
:1027500045EA0400064326480830066070BD70B59F
:1027600005460C46002645B1B5F1804F05D0B5F1C0
:10277000004F02D0B5F1404F00D104E040F24A21B1
:102780001EA0FDF713FE5CB1B4F1005F08D0B4F1F8
:10279000205F05D0B4F1405F02D0B4F1605F00D19A
:1027A00004E040F24B2115A0FDF700FE1048083070
:1027B000066826F0784645EA040006430C480830CF
:1027C000066070BD70B5044600251CB1012C01D017
:1027D000022C00D104E04FF42D7108A0FDF7E6FDB6
:1027E00003480830056825F003052543056070BDE2
:1027F00000380240FFFFF6FE103000244C69627280
:1028000061726965735C53544D3332463478785F36
:102810005374645065726970685F4472697665725A
:102820005C7372635C73746D3332663478785F7294
:1028300063632E630000000000004742800E4742A1
:10284000F748006800F00C00704770B5044600259A
:102850007CB1802C0DD0902C0BD0A02C09D0B02CAA
:1028600007D0C02C05D0D02C03D0E02C01D0F02C08
:1028700000D105E040F2E921AFF28000FDF796FDBE
:10288000E748056825F0F0052543056070BD70B583
:10289000044600255CB1B4F5805F08D0B4F5A05FB4
:1028A00005D0B4F5C05F02D0B4F5E05F00D105E01B
:1028B00040F20931AFF2BC00FDF778FDD848056859
:1028C00025F4E0552543056070BD70B5044600252C
:1028D0005CB1B4F5805F08D0B4F5A05F05D0B4F565
:1028E000C05F02D0B4F5E05F00D105E04FF44A715B
:1028F000AFF2F800FDF75AFDC948056825F46045B8
:1029000045EAC405056070BDF0B500210022002431
:1029100002258C460223C24E366806F00C0121B116
:10292000042905D0082933D105E0BE4E066032E007
:10293000BD4E06602FE0BA4E361F3668C6F3805C87
:10294000B74E361F366806F03F03BCF1000F0AD0C1
:10295000B54EB6FBF3F6B24F3F1F3F68C7F388177B
:1029600006FB07F409E0AF4EB6FBF3F6AC4F3F1F92
:102970003F68C7F3881706FB07F4A94E361F366871
:10298000C6F30146761C7500B4FBF5F6066002E05E
:10299000A44E066000BF00BFA14E366806F0F001ED
:1029A0000909A24E725C0668D64046609C4E3668A5
:1029B00006F4E051890A9D4E725C4668D6408660F6
:1029C000974E366806F46041490B984E725C466833
:1029D000D640C660F0BD70B504460025B4F5807FD2
:1029E0005CD0B4F5007F59D09148844256D09148CC
:1029F000844253D09048844250D0904884424DD075
:102A00008F4884424AD08F48844247D08E488442BF
:102A100044D08E48844241D08D4884423ED08D4877
:102A200084423BD08C48844238D08C48844235D094
:102A30008B48844232D08B4884422FD08A488442CB
:102A40002CD08A48844229D08948844226D089489B
:102A5000844223D08848844220D0884884421DD0B4
:102A6000874884421AD08748844217D086488442D7
:102A700014D08648844211D0854884420ED08548BF
:102A800084420BD08448844208D08448844205D0D4
:102A90008348844202D08348844200D105E040F25A
:102AA000D931AFF2A820FDF781FC04F44070B0F5F5
:102AB000407F09D15A48056825F4F8157A4904EA97
:102AC0000100054356480560554868300068C4F366
:102AD0000B01084352496831086070BD10B50446C7
:102AE0000CB1012C00D105E040F2F731AFF2F42037
:102AF000FDF75CFC6D48046010BD10B504460CB1D8
:102B0000012C00D105E04FF48161AFF21030FDF7E8
:102B10004DFC6648001D046010BD10B504460CB1A4
:102B2000012C00D105E040F21941AFF23030FDF741
:102B30003DFC5F48046010BD70B504460D465D481D
:102B4000044201D104B105E04FF48861AFF2543082
:102B5000FDF72CFC0DB1012D00D105E040F2424102
:102B6000AFF26830FDF722FC3DB12D4828300068F7
:102B700020432B492831086006E0294828300068A6
:102B8000A04327492831086070BD70B504460D4642
:102B900034F0F10001D104B105E04FF48C61AFF2E3
:102BA000A430FDF703FC0DB1012D00D105E040F28A
:102BB0006141AFF2B830FDF7F9FB3DB118482C3058
:102BC0000068204316492C31086006E014482C3078
:102BD0000068A04312492C31086070BD70B50446EE
:102BE0000D4634F0010001D104B105E040F27B4113
:102BF000AFF2F830FDF7DAFB0DB1012D00D105E0A1
:102C000040F27C41AFF20C40FDF7D0FB3DB10448EF
:102C100030300068204302493031086051E04BE019
:102C2000083802400024F40040787D0114000020A0
:102C3000000302000003030000030400000305007A
:102C4000000306000003070000030800000309005A
:102C500000030A0000030B0000030C0000030D003A
:102C600000030E0000030F0000031000000311001A
:102C700000031200000313000003140000031500FA
:102C800000031600000317000003180000031900DA
:102C900000031A0000031B0000031C0000031D00BA
:102CA00000031E0000031F00FFFCFF0F3C0E474205
:102CB0005C01474200EE8B81F8480068A043F74969
:102CC000086070BD70B504460D46F548044201D158
:102CD00004B105E040F2AD41AFF2E040FDF766FB24
:102CE0000DB1012D00D105E040F2AE41AFF2F4404C
:102CF000FDF75CFB3DB1E948083000682043E74937
:102D00000831086006E0E54808300068A043E34960
:102D10000831086070BD70B504460D46E1480442B4
:102D200001D104B105E040F2D541AFF23050FDF7DA
:102D30003DFB0DB1012D00D105E040F2D641AFF2CF
:102D40004450FDF733FB3DB1D4480C3000682043BC
:102D5000D2490C31086006E0D0480C300068A0432E
:102D6000CE490C31086070BD70B504460D46CE48A2
:102D7000044201D104B105E040F2FC41AFF28450BD
:102D8000FDF714FB0DB1012D00D105E040F2FD412E
:102D9000AFF29850FDF70AFB3DB1C04828380068F3
:102DA0002043BE492839086006E0BC48283800683E
:102DB000A043BA492839086070BD70B504460D4675
:102DC00034F0F10001D104B105E040F21951AFF245
:102DD000D450FDF7EBFA0DB1012D00D105E040F222
:102DE0001A51AFF2E850FDF7E1FA3DB1AB48243893
:102DF00000682043A9492439086006E0A748243820
:102E00000068A043A5492439086070BD70B5044628
:102E10000D4634F0010001D104B105E040F231511A
:102E2000AFF22860FDF7C2FA0DB1012D00D105E027
:102E300040F23251AFF23C60FDF7B8FA3DB197482D
:102E400020380068204395492039086006E09348FF
:102E500020380068A04391492039086070BD70B5E2
:102E600004460D468E48044201D104B105E04FF4FA
:102E7000AC61AFF27860FDF799FA0DB1012D00D188
:102E800005E040F26151AFF28C60FDF78FFA3DB181
:102E9000824818380068204380491839086006E0E5
:102EA0007E4818380068A0437C491839086070BD16
:102EB00070B504460D467D48044201D104B105E0D9
:102EC00040F28451AFF2CC60FDF770FA0DB1012DE4
:102ED00000D105E040F28551AFF2E060FDF766FAFF
:102EE0003DB16E481438006820436C4914390860BD
:102EF00006E06A4814380068A0436849143908603D
:102F000070BD70B504460D466948044201D104B154
:102F100005E040F2B251AFF21C70FDF747FA0DB177
:102F2000012D00D105E040F2B351AFF23070FDF752
:102F30003DFA3DB1594818300068204357491831CF
:102F4000086006E0554818300068A043534918311E
:102F5000086070BD70B504460D4634F0F10001D133
:102F600004B105E040F2D251AFF27070FDF71EFAE5
:102F70000DB1012D00D105E040F2D351AFF28470C4
:102F8000FDF714FA3DB145481C3000682043434921
:102F90001C31086006E041481C300068A0433F49EE
:102FA0001C31086070BD70B504460D4634F0010058
:102FB00001D104B105E040F2ED51AFF2C070FDF770
:102FC000F5F90DB1012D00D105E040F2EE51AFF25F
:102FD000D470FDF7EBF93DB1304820300068204354
:102FE0002E492031086006E02C4820300068A043BC
:102FF0002A492031086070BD70B504460D46284846
:10300000044201D104B105E040F21F61AFF61400A3
:10301000FDF7CCF90DB1012D00D105E04FF4C461ED
:10302000AFF62800FDF7C2F93DB11C482830006812
:1030300020431A492831086006E018482830006803
:10304000A04316492831086070BD70B504460D468E
:103050001448044201D104B105E040F24761AFF6E3
:103060006400FDF7A3F90DB1012D00D105E04FF487
:10307000C961AFF67800FDF799F93DB107482C30EA
:103080000068204305492C31086006E003482C30D5
:103090000068A04301492C31086070BD38380240F7
:1030A000003601C9CCA0F8FF00EE9FDDCCA6F8FFEA
:1030B000006E988170B504460D4614F0C00F01D122
:1030C00004B105E040F27461AFF6D000FDF76EF98F
:1030D0000DB1012D00D105E040F27561AFF6E400BD
:1030E000FDF764F92DB12548007820432349087085
:1030F00006E022480078E143C9B208401F49087041
:1031000070BD1E486730006840F080701B49673111
:103110000860704770B504460025012C0BD0022CC6
:1031200009D0042C07D0082C05D0102C03D0802CFB
:1031300001D0202C00D105E040F2DA61AFF6441056
:10314000FDF734F90D48401E0068204201D00125EA
:1031500000E00025284670BD10B5044614F0400F6D
:1031600001D104B105E040F2F961AFF67010FDF74E
:103170001DF90248401C047010BD00000D380240CB
:1031800010B50446F84884420ED0F84884420BD06B
:10319000F748844208D0F748844205D0F648844274
:1031A00002D0F648844200D103E0B521F4A0FDF737
:1031B000FDF8ED48844208D101211020FFF778FE88
:1031C00000211020FFF774FE3EE0E848844209D158
:1031D00001214804FFF743FE00214FF40030FFF7C0
:1031E0003EFE31E0E248844209D101218804FFF724
:1031F00036FE00214FF48020FFF731FE24E0DD4849
:10320000844209D10121C804FFF729FE00214FF4AF
:103210000020FFF724FE17E0D748844209D101219E
:103220000805FFF71CFE00214FF48010FFF717FE82
:103230000AE0D248844207D101212020FFF738FE5E
:1032400000212020FFF734FE10BD2DE9FF47054681
:103250000C460026B14600BFB046C34885420ED09A
:10326000C24885420BD0C248854208D0C148854239
:1032700005D0C148854202D0C048854200D103E054
:10328000EB21BFA0FDF792F8206820B1CB49206860
:10329000884200D203E0EC21B9A0FDF787F8A088AE
:1032A00018B1A088B0F5805F00D103E0ED21B4A093
:1032B000FDF77CF8E08858B1E088B0F5805F07D072
:1032C000E088B0F5005F03D0E088B0F5405F00D142
:1032D00003E0EE21AAA0FDF769F8208938B1208922
:1032E000B0F5806F03D02089B0F5C06F00D103E046
:1032F000EF21A3A0FDF75AF860894FF6F371084259
:1033000002D1608900B103E0F0219DA0FDF74EF8E5
:10331000A08958B1A089B0F5807F07D0A089B0F509
:10332000007F03D0A089B0F5407F00D103E0F121F8
:1033300093A0FDF73BF8A08980B18B48854208D067
:103340008A48854205D08A48854202D08B4885420A
:1033500000D103E0F6218AA0FDF728F82E8A26F492
:103360004056E08806432E82AE8941F20C608643C7
:10337000A08821890843618908430643AE81AE8A4B
:1033800026F44076A0890643AE826846FFF7BCFA71
:103390007548854202D07948854202D1DDF80C900B
:1033A00001E0DDF80890A88910F4004F08D009EB7F
:1033B000C90000EB091021684900B0FBF1F707E0F4
:1033C00009EBC90000EB091021688900B0FBF1F797
:1033D0006420B7FBF0F006013009642101FB10788E
:1033E000A88910F4004F08D0322000EBC800B0FBD1
:1033F000F1F000F00700064308E0322000EB08106F
:103400006421B0FBF1F000F00F0006432E81BDE80F
:10341000FF874FF41651016000218180C180018136
:103420000C21418100218181704770B505460C4611
:1034300000264D48854208D04C48854205D04C486E
:10344000854202D04D48854200D104E04FF4B67168
:103450004BA0FCF7ABFF208818B12088B0F5006FB7
:1034600000D104E040F26D1145A0FCF79FFF608899
:1034700018B16088B0F5806F00D104E04FF4B771E7
:103480003FA0FCF793FFA08818B1A088B0F5007F9B
:1034900000D104E040F26F1139A0FCF787FFE0880B
:1034A00018B1E088B0F5807F00D104E04FF4B87126
:1034B00033A0FCF77BFF2E8A26F470662088618893
:1034C0000843A1880843E188084306432E8270BD63
:1034D0000021018041808180C180704770B5044621
:1034E0000D46214884420ED0204884420BD020480B
:1034F000844208D01F48844205D01F48844202D02D
:103500001E48844200D104E040F29B111CA0FCF74D
:103510004DFF0DB1012D00D104E04FF4CE7118A084
:10352000FCF744FF25B1A08940F40050A08104E0DD
:10353000A0894DF6FF710840A08170BD70B50446AA
:103540000D46094884420ED0084884420BD00848F2
:10355000844208D00748844205D00748844202D0FC
:10356000064884422CD131E0001001400044004064
:1035700000480040004C0040005000400014014052
:103580004C69627261726965735C53544D333246A3
:103590003478785F5374645065726970685F447200
:1035A000697665725C7372635C73746D3332663412
:1035B00078785F75736172742E630000E170720039
:1035C00040F2B511AFF24800FCF7F0FE208B00F49A
:1035D0007F402083208B2843208370BD70B5044634
:1035E0000D46FE4884420ED0FD4884420BD0FD4873
:1035F000844208D0FC48844205D0FC48844202D072
:10360000FB48844200D105E04FF4E571AFF2900031
:10361000FCF7CCFE0DB1012D00D105E040F2CB113D
:10362000AFF2A400FCF7C2FE25B1A08940F400402F
:10363000A08103E0A089C0F30E00A08170BD70B529
:1036400004460D46E54884420ED0E54884420BD03E
:10365000E448844208D0E448844205D0E3488442E8
:1036600002D0E348844200D105E04FF4F271AFF29A
:10367000F000FCF79BFE0DB1012D00D105E040F2FA
:10368000E511AFF20410FCF791FE25B1A08A40F4D9
:103690000060A08204E0A08A4FF2FF710840A0827F
:1036A00070BD70B504460D46CC4884420ED0CC485F
:1036B00084420BD0CB48844208D0CB48844205D00A
:1036C000CA48844202D0CA48844200D105E040F290
:1036D0001D21AFF25410FCF769FEB5F5007F00DA4A
:1036E00005E040F21E21AFF26810FCF75FFEC5F363
:1036F0000800A08070BD10B50446B84884420ED0C2
:10370000B74884420BD0B748844208D0B6488442B8
:1037100005D0B648844202D0B548844200D105E0C5
:1037200040F22D21AFF2A810FCF740FEA088C0F3B4
:10373000080010BD70B504460D46A84884420ED05E
:10374000A74884420BD0A748844208D0A6488442A8
:1037500005D0A648844202D0A548844200D105E0A5
:103760004FF41871AFF2E810FCF720FE0F2D00DCCB
:1037700005E040F26121AFF2F810FCF717FE208A55
:103780004FF6F07108402082208A2843208270BDC5
:1037900070B504460D46914884420ED0904884424C
:1037A0000BD09048844208D08F48844205D08F487F
:1037B000844202D08E48844200D105E04FF41D714E
:1037C000AFF24420FCF7F2FD0DB1012D00D105E070
:1037D00040F27521AFF25820FCF7E8FD25B1A08931
:1037E00040F00200A08104E0A0894FF6FD7108407E
:1037F000A08170BD70B504460D46784884420ED055
:10380000774884420BD07748844208D07648844277
:1038100005D07648844202D07548844200D105E044
:1038200040F28F21AFF2A820FCF7C0FD15B1B5F52D
:10383000006F00D105E04FF42471AFF2BC20FCF71B
:10384000B5FDA0894FF2FF710840A081A0892843EF
:10385000A08170BD70B504460D46604884420ED00C
:103860005F4884420BD05F48844208D05E4884425F
:1038700005D05E48844202D05D48844200D105E014
:103880004FF43571AFF20830FCF790FD0DB1202DEB
:1038900000D105E040F2D521AFF21C30FCF786FDE7
:1038A000208A4FF6DF7108402082208A2843208238
:1038B00070BD70B504460D46484884420ED0484855
:1038C00084420BD04748844208D04748844205D000
:1038D0004648844202D04648844200D105E040F286
:1038E000E621AFF26430FCF761FD0DB1012D00D18E
:1038F00005E040F2E721AFF27830FCF757FD25B143
:10390000208A40F48040208204E0208A4BF6FF7138
:103910000840208270BD10B50446304884420ED065
:103920002F4884420BD02F48844208D02E4884422E
:1039300005D02E48844202D02D48844200D105E0B3
:1039400040F2FE21AFF2C830FCF730FDA08940F014
:103950000100A08110BD70B504460D461F48844289
:103960000ED01F4884420BD01E48844208D01E4807
:10397000844205D01D48844202D01D48844200D1B3
:1039800005E040F23331AFF20840FCF70FFD0DB116
:10399000012D00D105E04FF44D71AFF21C40FCF752
:1039A00005FD25B1A08A40F00800A08204E0A08AAD
:1039B0004FF6F7710840A08270BD70B504460D4601
:1039C0000648844208D00648844205D0054884420F
:1039D00002D0074884420DD112E0000000100140DF
:1039E0000044004000480040004C004000500040AF
:1039F000001401404FF46271AFF27C40FCF7D6FC3A
:103A0000208BC0B22083208B40EA0520208370BD2C
:103A100070B504460D46F948844208D0F8488442FF
:103A200005D0F848844202D0F748844200D105E02E
:103A300040F29B31AFF2B840FCF7B8FC0DB1012D5C
:103A400000D105E04FF46771AFF2CC40FCF7AEFC5B
:103A500025B1A08A40F02000A08204E0A08A4FF6A1
:103A6000DF710840A08270BD70B504460D46E34882
:103A7000844208D0E248844205D0E248844202D021
:103A8000E148844200D105E04FF46D71AFF210506F
:103A9000FCF78CFC0DB1012D00D105E040F2B531F1
:103AA000AFF22450FCF782FC25B1A08A40F0100050
:103AB000A08204E0A08A4FF6EF710840A08270BD9A
:103AC00070B504460D46CD4884420ED0CC488442A1
:103AD0000BD0CC48844208D0CC48844205D0CC4896
:103AE000844202D0C848844200D105E040F2FB3154
:103AF000AFF27450FCF75AFC042D00D005B905E074
:103B00004FF47F71AFF28850FCF750FCA08A4FF65B
:103B1000FB710840A082A08A2843A08270BD70B5C6
:103B200004460D46B54884420ED0B54884420BD0B9
:103B3000B448844208D0B548844205D0B448844291
:103B400002D0B148844200D105E040F20D41AFF20D
:103B5000D050FCF72BFC0DB1012D00D105E040F257
:103B60000E41AFF2E450FCF721FC25B1A08A40F0F1
:103B70000200A08204E0A08A4FF6FD710840A082F6
:103B800070BD70B504460D4616469C4884420ED062
:103B90009B4884420BD09B48844208D09B48844277
:103BA00005D09B48844202D09748844200D105E06A
:103BB00040F23B41AFF23860FCF7F8FB4FF63F7044
:103BC000054201D105B105E040F23C41AFF2506041
:103BD000FCF7ECFB0EB1012E00D105E040F23D41B7
:103BE000AFF26460FCF7E2FB1EB1A08A2843A0821A
:103BF00004E0A08AE94389B20840A08270BD2DE9A3
:103C0000F04704460D4617464FF00008C246C1462D
:103C100000267A4884420ED0794884420BD07948F5
:103C2000844208D07948844205D07948844202D041
:103C30007548844200D105E040F2BD41AFF2C0605A
:103C4000FCF7B4FB282D18D0A5F5E060273814D078
:103C5000A5F5C060263810D0A5F5A06025380CD099
:103C6000A5F58060243808D0A5F50060463804D05A
:103C7000B0F5927001D0602D00D105E040F2BE4158
:103C8000AFF20470FCF792FB0FB1012F00D105E0F9
:103C900040F2BF41AFF21870FCF788FBA5F5106049
:103CA0006A3812D15548844208D05548844205D01C
:103CB0005448844202D05448844200D105E040F286
:103CC000C441AFF24470FCF771FB2646C5F34218BD
:103CD00005F01F0A012000FA0AF9B8F1010F01D11D
:103CE0000C3605E0B8F1020F01D1103600E01436B1
:103CF00027B1306840EA0900306003E0306820EA0C
:103D000009003060BDE8F08770B505460C46002616
:103D10003A4885420ED03A4885420BD03948854210
:103D200008D03A48854205D03948854202D0364805
:103D3000854200D105E040F2FC41AFF2BC70FCF7D7
:103D400035FB012C13D0802C11D0402C0FD0202C0F
:103D50000DD0102C0BD0B4F5807F08D0B4F5007FC7
:103D600005D0082C03D0042C01D0022C00D105E092
:103D700040F2FD41AFF2F870FCF718FBB4F5007F9C
:103D800012D11E48854208D01D48854205D01D48E5
:103D9000854202D01C48854200D105E040F2025124
:103DA000AFF62400FCF702FB2888204201D0012650
:103DB00000E00026304670BD70B504460D460F4841
:103DC00084420ED00E4884420BD00E48844208D064
:103DD0000E48844205D00E48844202D00A488442EC
:103DE00000D105E040F22C51AFF66C00FCF7DEFA92
:103DF0004FF69F4005420DD165B111E00010014022
:103E0000004400400048004000140140004C0040C5
:103E10000050004040F22D51AFF69C00FCF7C6FA6E
:103E200005F40070B0F5007F12D17B48844208D0C1
:103E30007A48844205D07A48844202D07948844244
:103E400000D105E040F23251AFF6CC00FCF7AEFAFB
:103E5000E843208070BD2DE9F04705460C46002759
:103E60000026B046B1466C4885420ED06B4885426C
:103E70000BD06B48854208D06B48854205D06B4813
:103E8000854202D06748854200D105E04FF4AA611F
:103E9000AFF61410FCF78AFA282C26D0A4F5E060BF
:103EA000273822D0A4F5C06026381ED0A4F5A06023
:103EB00025381AD0A4F58060243816D0A4F5006007
:103EC000463812D0B0F592700FD0B4F5587F0CD0B0
:103ED000A4F54070253808D0B4F5587F05D0B4F566
:103EE000187F02D0B4F5B07F00D105E040F2515107
:103EF000AFF67410FCF75AFAA4F510606A3812D1C4
:103F00004548854208D04548854205D04448854209
:103F100002D04448854200D105E040F25651AFF648
:103F2000A010FCF743FAC4F3421804F01F06012066
:103F300000FA06F6B8F1010F02D1A889064007E0A1
:103F4000B8F1020F02D1288A064001E0A88A064093
:103F50002712012000FA07F7288807401EB117B181
:103F60004FF0010901E04FF000094846BDE8F08735
:103F70002DE9F04104460D460026002726488442DC
:103F80000ED0264884420BD02548844208D02648CB
:103F9000844205D02548844202D02248844200D180
:103FA00005E040F29951AFF62820FCF7FFF9A5F59E
:103FB000C06026380AD0A5F5A060253806D0A5F542
:103FC0000060463802D0B0F5927000D105E040F2B2
:103FD0009A51AFF65420FCF7E9F9A5F510606A385C
:103FE00012D10D48844208D00C48844205D00C48B8
:103FF000844202D00B48844200D105E040F29F5138
:10400000AFF68420FCF7D2F92E120120B04087B21F
:10401000F8432080BDE8F0810010014000440040DA
:104020000048004000140140004C00400050004097
:104030001CB50C46064B7B4469460090204600F0B8
:10404000C8F804460020694600F0D6F820461CBD9A
:10405000BF01000070477047704770B5044685691E
:104060000068C10601D5302600E02026C00708D030
:1040700070BDD4E9012130469047206A00F101006B
:1040800020626D1EF5D570BD70B504468569006867
:10409000C00708D170BDD4E9012120209047206AD3
:1040A00000F1010020626D1EF5D570BD09684A055A
:1040B00001D540B27047C905FCD500B27047096808
:1040C0004A0501D5C0B27047C905FCD580B270471A
:1040D00070B505460C46012A05D02868800600D533
:1040E000EA69002302E0012305E05B1C934202D24F
:1040F000E05C0028F9D1A869E618C01AA861286A0E
:10410000184428622846FFF7A8FF04E0D5E90121FA
:1041100014F8010B9047B442F8D32846FFF7B4FFD8
:1041200070BD00002DE9F041074600251068752993
:10413000394616A411D0FFF7B9FF002803DAC0F101
:10414000000013A407E039688A0701D511A402E032
:10415000490704D510A4012501E0FFF7B0FF0021B5
:104160000A2307F1240607E0B0FBF3F203FB120079
:10417000303070541046491C0028F5D12B46224699
:104180003846BDE8F04100F06CBA000000000000C5
:104190002D0000002B0000002000000011680268C4
:1041A000006A530501D508700BE0D30501D50880DE
:1041B00007E0130603D5C217C1E9000201E0520669
:1041C000086001207047000001694A1C02610878FC
:1041D000704700B58FB0CDE9013100210591054947
:1041E0007944CDE903101146684600F02FF90FB06D
:1041F00000BD0000E5FFFFFF0A6802F8010B0A603E
:10420000704700002DE9FF5F04468A461546DFF837
:10421000AC80F8440027D8E900103E46CDE90010F4
:1042200011E03AF816106A4602A800F0B2FC411CF0
:1042300007D02168890603D5E269391891420ED862
:10424000074406F101062068800602D5E069B842FD
:1042500005DDAE42E5DB3AF816000028E1D1A069A1
:10426000C01BA0612046FFF7F8FED8E90010CDE999
:104270000010002016E03AF818106A4602A800F074
:1042800088FC8146401C0BD000250DF1080B05E091
:10429000D4E901211BF8050090476D1C4D45F7D36B
:1042A00008F10100B0428046E5DB206A3844206214
:1042B0002046FFF7E9FEBDE8FF9F00004214000022
:1042C0002DE9F0418046D21D22F007020026D2E9F6
:1042D0000002F52914A512D0002A06DA0023D0EB3B
:1042E000030063EB020211A508E0D8F800108B0769
:1042F00001D50FA502E0490701D50EA501261146FB
:10430000002408F1240704E000F066F930323A5541
:10431000641C50EA0102F7D133462A462146404642
:10432000BDE8F04100F09DB9000000002D00000044
:104330002B0000002000000030B4002100F1240414
:104340000CE002F0070505F130054FEAD20242EA1F
:104350004372655401F101014FEAD30352EA0305A8
:10436000EFD10468002310A2250708D504F020042B
:104370000C4304D0C46901230CA2641EC46130BC88
:1043800000F06FB910B5044621461068FFF797FE9C
:1043900002462046BDE810400023CDE7D21D22F0A2
:1043A0000701D1E90023C7E700000000300000004A
:1043B000F0B40F460168090502D5234C7C4402E0A5
:1043C000214C7C440E34002100F124050BE002F066
:1043D0000F064FEA1212A65D42EA03724FEA131368
:1043E0006E5401F1010152EA0306F0D1224604683D
:1043F0000023240704D5702F05D009B11132022300
:10440000F0BC00F02EB910320123F9E770B5044674
:104410000D4621461068FFF752FE02462946204607
:10442000BDE870400023C3E7D21D22F00703D3E9A3
:104430000023BDE70368126843F0200303600823EC
:10444000C3610023B4E70000A01200002DE9F05F73
:10445000044689464FF0000ADFF878B1FB44C0F803
:1044600020A02046E1688847002875D0252806D07E
:10447000D4E901219047206A401C2062F1E7002620
:104480005F462046E16888472028054608DB312D35
:1044900006D207EB050010F8200C08B10643F0E740
:1044A000B00701D526F00406C4F81CA00027C4F804
:1044B00018A02A2D09D0284601F092F838B304EB51
:1044C0008708303DC8F8185019E059F8041B2046F9
:1044D00004EB87029161E1688847012F054618D1F6
:1044E000E069002820DA26F020061DE0D8F8180040
:1044F00000EB800005EB40003038C8F8180020467B
:10450000E1688847054601F06BF80028EED1012FDD
:104510000AD02E2D08D12046E16888477F1C054629
:10452000022F46F02006C4DBA069002803DA4042CF
:1045300046F00106A061F00701D026F010066C2DB0
:104540000BD0682D09D04C2D39D06A2D35D0742D63
:1045500035D07A2D33D016E038E0E1682F4620467A
:104560008847B842054609D16C2F26D04FF48060A9
:10457000E168064320468847054604E06C2F1AD0C0
:104580004FF4807006430DB3A5F14100192802D8FD
:10459000203546F400664A462946204626604E46A7
:1045A000FBF72CFE80B101280BD0F61D26F007008A
:1045B00000F1080955E74020E4E78020D8E7002013
:1045C000D6E706F104094CE7284651E7206ABDE822
:1045D000F09F00002812000030B5B0F10A024FEA47
:1045E000900E71F100034EEA817EB0EB0E0061EB9C
:1045F00091014FEA101E4EEA017E10EB0E0041EBD6
:1046000011114FEA102E4EEA016E10EB0E0041EB35
:1046100011214FEA104E4EEA014E10EB0E0041EB15
:104620001141401841F100014FEAD00040EA4170C9
:104630004FEAD10110EB80054FEA810444EA9074FF
:1046400044EB01046D1944EB0404521BA3414FF0E9
:10465000000348BF0A3200D530BD401C41F10001C3
:1046600030BD2DE9F0470D4604469246994600F1CB
:1046700024080168880604D5E06921F01001216052
:1046800000E00120A84202DDA0EB050700E00027C2
:10469000A16907EB050202EB0900A1EB0000A06194
:1046A0002068C00602D42046FFF7D7FC002608E0A9
:1046B000D4E901211AF806009047206A401C761CB4
:1046C00020624E45F4DB2068C0060AD52046FFF77D
:1046D000C4FC06E0D4E9012130209047206A401C48
:1046E0002062381EA7F10107F4DC07E0D4E90121BC
:1046F00018F805009047206A401C2062281EA5F18A
:104700000105F3DC2046FFF7BFFC2068000602D558
:104710000220BDE8F0870120FBE770472DE9FF4F3D
:104720000C461E464FF0FF378BB0D2E90001DDF892
:1047300060800A908A46C1F30A5505B93D460021BA
:1047400008464FF00000BAF1000F00F4400005DA0F
:1047500000EB80004FF4400101EA50004FEA90590D
:10476000B9F1010F00DDB9460A9850EA4A000FD0AE
:1047700044F61050A5F2FF3545432F14B8F1000F51
:104780001FD07542291E1FDD4846C9F100021CE0FA
:10479000B8F1010F4FF0000001D1F24307E03021E2
:1047A00001E02154401CB042FBDB304600220021D6
:1047B00021540B99C1F80880C1E900200FB0BDE871
:1047C000F08FBD1B6D1CDDE74A4600DA694206A882
:1047D00000F070FA06AB07CB03AB07C350460A994B
:1047E00000F02BFB8DE80700A0F500501F3800906B
:1047F0000398002D09DD42F21F014A46084403A92F
:104800000390684600F08AFD08E0A0F500504A4693
:104810001F3803A90390684600F094FD8DE8070057
:104820000004000C03D04FF0FF30410800E01046B8
:10483000B8F1000F03D00022009215461FE0751E4C
:1048400006D4FFF7C9FE02F1300262556D1EF8D59D
:10485000B3460122084302D000227F1C04E02078E6
:10486000302801D100227F1E002A099786D01DE042
:10487000112D07DAFFF7B0FE303262556D1C50EA99
:104880000102F5D108430FD10021681E05E0235C29
:10489000625C6354491C2254401E8142F7DBAB46E4
:1048A000A81B401E099001E0009848B1002004F8C0
:1048B0000B000B98099AC0F80880C0E9002B7DE72F
:1048C00011264FF0000859E72DE9F04F88460446BD
:1048D000D21D22F0070191B0D1E90001CDE90A0112
:1048E00000F066FE02460B98C00F01D02D2007E0B5
:1048F0002068810701D52B2002E0202101EAC000B9
:10490000032A099001D0072A05DB034641462046C9
:1049100000F090F90EE12068800601D5E06900E022
:104920000620B8F1650F814606D0B8F1660F18D0A1
:10493000B8F1670F72D132E00020B9F1110F009089
:1049400001DB112301E009F101030AAA01A90CA866
:10495000FFF7E4FEDDE90C70002609F1010583464E
:1049600048E001204B4600904FF000470AAA01A9F9
:104970000CA8FFF7D3FEDDE90C050E990026AB4627
:1049800019B909F1010100EB0105B9EB050003D4E8
:10499000C0F1FF3609F10105A5EB09002BE0B9F1E3
:1049A000010F01DA4FF001090020B9F1110F009059
:1049B000484601DD112300E003460AAA01A90CA81C
:1049C000FFF7ACFEDDE90C704D46002683462068FB
:1049D00000070AD4AB4500DA5D4601A8012D04DDCD
:1049E000411911F8011C302907D04F4502DA17F19F
:1049F000040F04DA0120824610E06D1EEEE7002F5E
:104A000002DCED1B3E4403E0781CA84200DD0546B5
:104A1000A7EB060000F1010A4FF0004720680007ED
:104A200003D4AA4501DB4FF0FF3A0021B7F1004F54
:104A30000DF143088DF8431022D002202B23002FC4
:104A400001DA7F422D230A22011EA0F1010000DCC1
:104A50004FB197FBF2F102FB117C0F460CF1300CC9
:104A600008F801CDF0E7A8F10100037021680905FD
:104A700001D5452100E06521A0F1010800F8011CE5
:104A800009980FA9A1EB080707F1070700B101205A
:104A900000EB050101EBEA70A1693844A1EB0000CD
:104AA000A0F10100A0612068C00602D42046FFF7F3
:104AB000D4FA099830B1D4E901219047206A00F175
:104AC000010020622068C00620D52046FFF7C5FA05
:104AD0001CE0002E04DBB34502DD01A8805D00E090
:104AE0003020D4E901219047206A761C401CBAF19D
:104AF000010A20620AD100F099F8C0680168405CA0
:104B0000D4E901219047206A401C2062281EA5F1AB
:104B10000105DEDC07E0D4E9012118F8010B90471C
:104B2000206A401C2062381EA7F10107F3DC2046F2
:104B3000FFF7AAFA022011B041E610B5436913B19C
:104B4000AFF3008001E0FFF7C3FA012010BD126847
:104B500000F124010A7000224A700122EDE7116879
:104B60004FF0FF32E9E710B5436913B1AFF30080AE
:104B700001E0FFF747FB012010BD126800F124019E
:104B800082840022C2840122EDE711684FF0FF32D7
:104B9000E9E770B505460C46164600F03FF8036895
:104BA00093F80101012806D0FF2C0FD8185D68B1D9
:104BB00001202C7070BDD3F8070132462146034412
:104BC0002846BDE8704003F2071318474FF0FF3046
:104BD00070BD754600F0E6F8AE46050069465346DE
:104BE00020F00700854618B020B5FCF79DF8BDE819
:104BF00020404FF000064FF000074FF000084FF044
:104C0000000B21F00701AC46ACE8C009ACE8C009D4
:104C1000ACE8C009ACE8C0098D46704710B500F09B
:104C200005F8001D10BD00BFF509000000487047E1
:104C3000440000202DE9F04104461F460326016888
:104C4000072A01F4006004DB08B116A505E016A5EB
:104C500003E008B115A500E015A521F010002060C3
:104C6000A069C01EA0610FB1401EA0612046FFF7E1
:104C7000F4F94FB1D4E9012138469047206A401C2D
:104C80002062C01C206206E0206AFAE7D4E9012114
:104C900015F8010B9047761EF8D22046FFF7F4F97D
:104CA000BDE8F0814E414E006E616E00494E4600F7
:104CB000696E66002DE9F047814616468AB0354890
:104CC0007844D0E9002380680092CDE90130314872
:104CD00078440C38D0E90223006903924FF0370280
:104CE000CDE9043041F69B30014491FBF2F0A0F194
:104CF000800502FB10141B3C02D56442012000E039
:104D00000020DFF890A080460027FA44AAF1C60AE6
:104D10000DE0E00709D03246684607EB47010AEB91
:104D2000810100F00FFB8DE8070064107F1C002C50
:104D3000EFD1184F7F44B43F17E0E80713D007EBDB
:104D400004100DF1180A90E80E00AAE80E00C068E1
:104D5000F04201D198190890324606A903A800F044
:104D6000F1FA03AB07C36D10641C002DE5D1324688
:104D70006946B8F1000F03A802D000F0CFFA01E0B5
:104D800000F0E0FAC9E90001C9F808200AB0BDE85E
:104D9000F0870000540A00000446AFF3008020466C
:104DA000FBF791FA00487047240000204FF0013CC7
:104DB00050F8042B51F8043B9A4221D1A2EB0C038A
:104DC000934313EACC1317D150F8042B51F8043B4A
:104DD0009A4215D1A2EB0C03934313EACC130BD1E7
:104DE00050F8042B51F8043B9A4209D1A2EB0C0372
:104DF000934313EACC13DBD04FF00000704700BFA1
:104E0000D01A01BAB1FA81F101F0180122FA01F0C9
:104E1000CB40C1F12001DBB2C0B2C01A2CFA01F3C1
:104E2000D11A914311EAC311E6D170470149182004
:104E3000ABBEFEE72600020070475FEA400C08BFE9
:104E400091F0000F4FEA8C234FEAC12243EA5151FF
:104E50004FEA1C5018BF00F5F0404FEA300018BF71
:104E600041F000415FEA6C5C00F02980BCF1FF3F3B
:104E700008BF40F080407047130C06BF12044FF08B
:104E8000100C4FF0000C130E04BF12020CF1080CB2
:104E9000130F04BF12010CF1040C930F04BF920016
:104EA0000CF1020CD30F04BF52000CF1010C11469F
:104EB0004FF00002A0F11F00A0EB0C00704711F0B2
:104EC000004F08BF704731F000413FF4D5AF0B0CE5
:104ED00006BF09044FF0100C4FF0000C0B0E04BF7E
:104EE00009020CF1080C0B0F04BF09010CF1040CB2
:104EF0008B0F04BF89000CF1020CCB0F04BF4900DB
:104F00000CF1010CCCF12003A0EB0C0022FA03F30E
:104F100002FA0CF241EA030100F10100704720F0AF
:104F20007F4C80EA030023F07F47ACEB070303F5D7
:104F30007C5300F0004003F1FF032DE980494FEA64
:104F4000154B09B44FEA144325EA0B4E24EA0348F3
:104F50000FF2042606EB132749083E785FEA320277
:104F600003FB0667C7F5000707FB06F64FEA543751
:104F70004FEAD64606F1020607FB066CCCF1005C50
:104F80004FEA1C472CEA074C07FB06F40CFB06F51E
:104F900004EB15464FEA961634BF00204FF0004050
:104FA0004FEAD13706FB07FC4FEA1C4C0CFB0BF712
:104FB000D21B03FB0CF761EB07010CFB0EF7B0EB08
:104FC000074072EB17420CFB08F734BFA2EB074215
:104FD000B2EB074261EB17414FEA0C444FEA9107ED
:104FE00006FB07FC4FEA1C4C0CFB0BF7B0EBC74071
:104FF00072EB573203FB0CF734BFA2EBC742B2EBA4
:10500000C74261EB57310CFB0EF7B0EBC70072EBF8
:1050100057720CFB08F734BFA2EBC702B2EBC70212
:1050200061EB5771039F4FEA816141EA921104EBF2
:10503000CC044FEAD1374FEA826206FB07FC42EA12
:1050400090124FEA80604FEA1C4C0CFB0BF7D21B0E
:1050500003FB0CF761EB07010CFB0EF7B0EB07400D
:1050600072EB17420CFB08F734BFA2EB0742B2EB1E
:10507000074261EB17414FEA8C554FEA910704EB69
:105080009C2406FB07FC4FEA1C4C0CFB0BF7B0EB17
:10509000C74072EB573203FB0CF734BFA2EBC74299
:1050A000B2EBC74261EB57310CFB0EF7B0EBC70018
:1050B00072EB57720CFB08F734BFA2EBC702B2EBDE
:1050C000C70261EB577115EB4C254FEA816141EA4C
:1050D00092114FEA82624FEAD13742EA901206FB00
:1050E00007FC44F100044FEA80604FEA1C4C0CFBC3
:1050F0000BF7D21B03FB0CF761EB07010CFB0EF760
:10510000B0EB074072EB17420CFB08F734BFA2EB81
:105110000742B2EB074261EB174115EB1C154FEA52
:10512000813141EA92414FEA823242EA90424FEAAB
:1051300080304FEA0C7644F1000448EA03434EEA1B
:105140000B484FF0000EB2EB080C71EB030724BFC5
:10515000624639464EEB0E0E4FF0000B00185241DE
:1051600049414BEB0B0BB2EB080C71EB03077BF1E6
:10517000000B24BF624639464EEB0E0E4FF0000B7B
:105180000018524149414BEB0B0BB2EB080C71EB91
:1051900003077BF1000B24BF624639464EEB0E0E2F
:1051A00051EA020718BF46F0010616EB0E7655F1DC
:1051B000000254F1000103D5BDE88901BDE8008873
:1051C000BDE88901BDE80048B619524141EB010133
:1051D000A3F10103704780807F7E7D7C7B7A7978A4
:1051E000777676757473727171706F6E6E6D6C6CAC
:1051F0006B6A6A696868676666656464636362614E
:105200006160605F5F5E5E5D5D5C5C5B5B5A5A59CE
:10521000595858575756565555555454535352523A
:105220005251515050504F4F4F4E4E4D4D4D4C4C92
:105230004C4B4B4B4A4A4A494949484848474747DB
:105240004746464645454544444444434343434218
:10525000424242414141002B26D4770021D01CB567
:105260004FEA370703B44FF010004FF010014FF032
:1052700000000FBCBDE810400BF1010BBBF1010FAA
:1052800008BF5FEA170722BF12F1010211F1010105
:105290004FF0004143F1000300F0004043EA0000FA
:1052A0007047F9D35708DAE746EA064613F1400F8C
:1052B0004FEA16461FDD13F1200FDFBF16430A46E3
:1052C000002120335B42C8D0C3F1200746EA0646DE
:1052D00002FA07F74FEA164646EA0706C3F1200727
:1052E00022FA03F201FA07F721FA03F14FF0000363
:1052F00042EA0702B1E746EA020646EA06464FEAF4
:10530000164646EA0106BCBF46EA0646360C4FF092
:1053100000034FF000024FF000019EE72DE9C04866
:10532000934630B491E8380007C831EA400C48BFD2
:1053300034EA430C03D5FFF7F2FDFFF78CFFF0BC16
:10534000BDE800882DE9C048934630B491E83800A4
:1053500007C810F0804F08BF13F0804F03D100F052
:1053600005F8FFF778FFF0BCBDE8008820F07F4724
:1053700080EA030023F07F4C07EB0C03A3F57C537A
:1053800000F00040A3F1FE0392F0000F00F0B380A4
:1053900095F0000F00F077802DE901494FEA1140A8
:1053A0004FEA144621EA004800FB06FC24EA0647BF
:1053B00008FB06F607FB08F800FB07F718EB0648A2
:1053C0004CEB164C4FEA124B18EB07484FEA1546C8
:1053D0004CEB174022EA0B4E0BFB06FC25EA064776
:1053E0000EFB06F607FB0EFE0BFB07F71EEB064E49
:1053F0004CEB164C4FF000061EEB074E4CEB174BD8
:1054000018EB0B0840F1000018EB0E0B58EB0008EE
:1054100040F100008F1A4FF000013CBFC943661BEA
:1054200014BFB5EB040C00213CBFC943F61B4FEA87
:1054300017444EEA8E0E27EA04454FEA1C4704FB48
:1054400007622CEA074C05FB07F70CFB05F604FB8B
:105450000CFC16EB074642EB174216EB0C4642EBF0
:105460001C421BEB060658EB0202414146EA9E062F
:1054700001D5BDE80189B619524141EB0101A3F103
:105480000103BDE801894FEA14454FEA114724EAB8
:10549000054621EA074C05FB07F406FB07F70CFB62
:1054A00006F105FB0CFC11EB074144EB17444FEAF6
:1054B000124711EB0C4144EB1C4422EA074C05FB5C
:1054C00007F206FB07F70CFB06F605FB0CFC16EBD8
:1054D000074642EB174216EB0C4642EB1C456A1896
:1054E00054F1000148BF7047B619524141EB010128
:1054F000A3F10103704795F0000F37D04FEA114236
:105500004FEA144721EA024624EA074C02FB07F15E
:1055100006FB07F70CFB06F402FB0CFC14EB07443C
:1055200041EB17414FEA154714EB0C4441EB1C418A
:1055300025EA074C02FB07F506FB07F70CFB06F60E
:1055400002FB0CFC16EB074645EB174516EB0C4629
:1055500045EB1C42121951F1000148BF7047B619C2
:10556000524141EB0101A3F1010370474FEA144599
:105570004FEA114724EA054621EA074C05FB07F1EB
:1055800006FB07F70CFB06F24FF0000605FB0CFCD0
:1055900012EB074241EB174112EB0C4251EB1C415D
:1055A00048BF7047921841EB0101A3F10103704716
:1055B00003B401984100009850EAC12018BF0420AC
:1055C0004A0D18BF40F0010040F2FF72B2EB515F8C
:1055D00008BF40F00200012808BF052002B0704754
:1055E00030380A2801D2012070470020704700009F
:1055F00010B500290AD00878002807D0054878445B
:10560000FFF7D4FB002801D0002010BD02487844E9
:1056100010BD0000520100004A01000010B5002931
:105620000AD00878002807D005487844FFF7BEFB69
:10563000002801D0002010BD0248784410BD0000B1
:10564000420100003A0100004FF04070E1EE100A04
:105650007047FFF739B900000000000000000000AB
:105660003031323334353637383941424344454698
:105670004030580030313233343536373839616292
:105680006364656640307800040000080000000094
:1056900000000002000100001000000002400000B5
:1056A000000000A00000000005400000000000C84D
:1056B000000000000C4000000000409C00000000C2
:1056C000194000000020BCBE000000003440000073
:1056D000BFC91B8E00000004B5400000504BCFD066
:1056E0006607E2CF010000006C4100003E8251AA33
:1056F000DFEEA73401000000D9420000DCB5A0E2D3
:105700003A301F97FFFFFFFFB4450000FD25A0C8FA
:10571000E9A3C14FFFFFFFFFFF3F00000000008033
:1057200000000000FF3F00000000008000000000BB
:105730007C5800080000002024000000C40100087C
:10574000A05800082400002064060000E0010008C2
:105750001C00000043000000F8FFFFFF0C000000E9
:105760000E0000000F0000002E00000010010000DD
:1057700043000000F8FFFFFF004040404040404031
:105780004040414141414140404040404040404014
:1057900040404040404040404005020202020202B8
:1057A0000202020202020202022020202020202007
:1057B000202020020202020202029090909090901B
:1057C00010101010101010101010101010101010D9
:1057D000101010100202020202028888888888884D
:1057E0000808080808080808080808080808080839
:1057F0000808080802020202400000000000000041
:105800000000000000000000000000000000000098
:105810000000000000000000000000000000000088
:105820000000000000000000000000000000000078
:105830000000000000000000000000000000000068
:105840000000000000000000000000000000000058
:105850000000000000000000000000000000000048
:105860000000000000000000000000000000000038
:10587000000000000000000000000000007A030AA1
:1058800000000000000000000102030406070809F0
:1058900000000000010203040102030406070809D6
:040000050800018965
:00000001FF
